:020000040800F2
:1000000000000220C12D0008230800082508000870
:1000100027080008290800082B0800080000000035
:100020000000000000000000000000002D08000893
:100030002F080008000000003108000833080008FD
:10004000112E0008112E0008112E0008112E000894
:10005000112E0008112E0008112E0008112E000884
:10006000112E0008112E0008112E0008112E000874
:10007000112E0008112E0008112E0008112E000864
:10008000112E0008112E0008112E0008112E000854
:10009000112E0008112E0008112E0008112E000844
:1000A000112E0008112E0008112E0008112E000834
:1000B000112E0008112E0008112E0008112E000824
:1000C000112E0008112E0008112E0008112E000814
:1000D000112E0008112E0008112E0008112E000804
:1000E000112E0008112E0008112E0008112E0008F4
:1000F000112E0008112E0008112E0008112E0008E4
:10010000112E0008112E0008112E0008112E0008D3
:10011000112E0008112E0008112E0008112E0008C3
:10012000112E0008112E0008112E0008112E0008B3
:10013000112E0008112E0008112E0008112E0008A3
:10014000112E0008112E0008112E00083D0800088D
:10015000112E0008112E0008112E0008112E000883
:10016000112E0008112E0008112E0008112E000873
:10017000112E0008112E0008112E000800000000AA
:08018000112E0008112E0008E9
:1001880010B5054C237833B9044B13B10448AFF3C9
:1001980000800123237010BD0C0000200000000027
:1001A8006C2E000808B5034B1BB103490348AFF395
:1001B800008008BD00000000100000206C2E000820
:1001C80053B94AB9002908BF00281CBF4FF0FF31B6
:1001D8004FF0FF3000F06EB9ADF1080C6DE904CEB8
:1001E80000F006F8DDF804E0DDE9022304B070470A
:1001F8002DE9F047089D04468C46002B40F083808B
:100208008A42174647D9B2FA82F242B1C2F12000B7
:1002180024FA00F09140974040EA010C94404FEADC
:100228001748230CBCFBF8F61FFA87FE08FB16C11B
:1002380043EA014306FB0EF1994209D9FB1806F17E
:10024800FF3080F01981994240F21681023E3B440A
:100258005B1AA4B2B3FBF8F008FB103344EA03447A
:1002680000FB0EFEA64509D93C1900F1FF3380F0CA
:100278000581A64540F2028102383C4440EA064026
:10028800A4EB0E0400261DB1D4400023C5E90043A9
:100298003146BDE8F08702B9FFDEB2FA82F2002AE1
:1002A80050D1CB1B4FEA174E1FFA87F80126B3FB34
:1002B800FEFC210C0EFB1C3341EA034108FB0CF346
:1002C8008B4207D979180CF1FF3002D28B4200F229
:1002D800E9808446C91AA3B2B1FBFEF00EFB1011E7
:1002E80043EA014408FB00F8A04507D93C1900F18E
:1002F800FF3302D2A04500F2D9801846A4EB0804C7
:1003080040EA0C40BFE78B4209D9002D00F0B180CC
:100318000026C5E9000130463146BDE8F087B3FA4A
:1003280083F6002E4AD18B4202D3824200F2B88073
:10033800841A61EB030101208C46002DA8D0C5E981
:10034800004CA5E7C2F1200320FA03F6974001FA12
:1003580002F04FEA174ED9403043030CB1FBFEF6CA
:100368001FFA87F80EFB161143EA014306FB08F152
:10037800994204FA02F409D9FB1806F1FF3C80F00F
:100388008D80994240F28A80023E3B445B1A81B2DA
:10039800B3FBFEF00EFB103341EA034100FB08F308
:1003A8008B4207D9791800F1FF3C73D28B4271D97F
:1003B80002383944CB1A40EA064678E7C6F1200CE1
:1003C80003FA06F422FA0CF31C4320FA0CF701FA9C
:1003D80006F34FEA144E21FA0CF11F433B0CB1FB14
:1003E800FEF91FFA84F80EFB191143EA014109FBD3
:1003F80008FA8A4502FA06F200FA06F308D96118E3
:1004080009F1FF3048D28A4546D9A9F102092144A9
:10041800A1EB0A01BFB2B1FBFEF00EFB101147EAD7
:10042800014700FB08F8B84507D9E71900F1FF3183
:100438002ED2B8452CD90238274440EA0940A7EB08
:100448000807A0FB02894F45C64649461AD317D06C
:100458005DB1B3EB0E0267EB010707FA0CFCF24043
:100468004CEA0202F740C5E9002700263146BDE8FC
:10047800F0872E4628460BE70646E9E61846FDE6CD
:100488004345E5D2B8EB020E69EB04010138DFE71A
:100498000846D2E760468DE78146B9E7664675E7C4
:1004A80030464AE7ACF1020C394413E702383C44C1
:1004B80024E700BF704700BF2DE9F0478CB0002447
:1004C8000794089409940A940B9401944F4B1A6B5F
:1004D80042F010021A631A6B02F010020192019A9C
:1004E80002941A6B42F004021A631A6B02F00402B7
:1004F8000292029A03941A6B42F080021A631A6BF2
:1005080002F080020392039A04941A6B42F00102EB
:100518001A631A6B02F001020492049A05941A6B8A
:1005280042F002021A631A6B02F002020592059A5F
:1005380006941A6B42F008021A631B6B03F0080357
:100548000693069BDFF8D88022460821404601F032
:100558003FFE012211462E4801F03AFE2D4D22465B
:100568004FF47041284601F033FE2B4E22464FF2DD
:100578001021304601F02CFE01270797DFF8A490E0
:10058800CDF82090099407A9244801F03BFD0423E5
:1005980007930894099407A9284601F033FD4FF4FE
:1005A800806307934FF0020ACDF820A009940A94BB
:1005B80005230B9307A9284601F024FD4FF4704347
:1005C8000793089709940A9407A9284601F01AFD89
:1005D8004FF210230793089709940A9407A9304605
:1005E80001F010FD202307930894099407A93046C9
:1005F80001F008FDCDF81CA0CDF82090099407A9BA
:10060800404601F0FFFC0CB0BDE8F087003802401E
:100618000008024000040240000C024000000240B2
:10062800001002400000121070B598B0302200216E
:100638000DEB020002F00EFC0024079408940994C4
:100648000A940B9403940494059406940194204B03
:100658001A6C42F080521A641B6C03F080530193A9
:10066800019B02941B4B1A6842F480421A601B6873
:1006780003F480430293029B01260C964FF48033C7
:100688000D93022512954FF48003139308231493B6
:100698004FF4A87315931695072317930CA801F028
:1006A800FBF80F230793089509944FF4A0530A9376
:1006B8004FF480530B93052107A801F049FB0396DB
:1006C800C0230493059503A801F0F2FB18B070BD90
:1006D800003802400070004008B501F00BFEFFF73B
:1006E800A3FFFFF7E9FE00F00DF84FF4704104484E
:1006F80001F074FD4FF47A7001F028FEF3E700BFB3
:10070800000C024008B5024801F03EFF08BD00BFDA
:100718002C00002008B5D0F8C00201F021FF08BD68
:1007280008B5D0F8C00202F025F808BD08B5D0F821
:10073800C00202F033F808BD704708B5D0F8C0020F
:1007480001F017FF08BD08B5D0F8C00201F015FF89
:1007580008BD08B5D0F8C40300F0DCFD012804D0BA
:10076800022804D000B1012008BD0120FCE70220C6
:10077800FAE708B5D0F8C40300F0C5FD08BD08B510
:1007880001F0E4FD08BD022805D8DFE800F0050403
:100798000200012070470220704708B5D0F8C40352
:1007A80000F084FDFFF7EFFF08BD08B5D0F8C403DB
:1007B80000F092FDFFF7E7FF08BD08B5D0F8C403C5
:1007C80000F09CFDFFF7DFFF08BD10B584B0D0F83E
:1007D800C403BDF8204002949DF81C4001949DF884
:1007E8001840009400F090F8FFF7CDFF04B010BD5A
:1007F80010B584B0D0F8C4039DF824400394BDF824
:1008080020400294079C01949DF81840009400F041
:10081800C6F8FFF7B8FF04B010BD7047FEE7FEE763
:10082800FEE7FEE770477047704708B501F07CFDAA
:1008380008BD000008B5024800F094FC08BD00BFE0
:10084800F803002000B583B0002100910C4B5A6CCE
:1008580042F480425A645A6C02F480420092009A30
:1008680001911A6C42F080521A641B6C03F0805399
:100878000193019B072001F0BBFC03B05DF804FB6A
:1008880000380240F8B50668346A04F00F07C4F36C
:100898004343C4F30A14022B00D0F8BD0546002CCC
:1008A800FBD007EB870300EBC303596C0029F4D096
:1008B8002246304600F07AFD07EB870305EBC303B9
:1008C8005A6C22445A64DA6C2244DA6406EB4716FE
:1008D800D6F810250B4B1340002BDED0D6F8003588
:1008E80023F0804343F00043C6F8003507EB870345
:1008F80005EBC30393F8502082F0010283F85020DF
:10090800CBE700BF0000F81FF0B585B004469DF89E
:1009180028509DF82C60BDF8307090F8B802012876
:100928003BD0012084F8B80201EB810004EBC00041
:100938004FF0000C80F83DC080F83830A0F84070C7
:1009480080F8391080F83F6002F07F0C80F83AC0D8
:1009580012F0800F18D101EB810004EBC0004FF0BA
:10096800000C80F83BC001EB810004EBC00080F86C
:100978003C50029701960095206800F09DFD0023E9
:1009880084F8B83205B0F0BD01EB810004EBC0007B
:100998004FF0010C80F83BC0E5E70220F2E7F8B51C
:1009A8009DF81850BDF8206001EB810400EBC404E9
:1009B80084F83B2084F83F306DB901EB810400EBEB
:1009C800C404032784F84270032B00F29480DFE804
:1009D80003F00A8B2F5D01EB810400EBC4040227AE
:1009E80084F84270F0E7012D40F08580002A40F03D
:1009F800828036B901EB810300EBC303012283F83F
:100A0800512001EB810300EBC30393F851303BB94C
:100A180001EB810300EBC303002283F842206AE064
:100A280001EB810300EBC303022283F8422062E05A
:100A3800AAB901EB810300EBC30393F8513033B932
:100A480001EB810300EBC30383F8422053E001EB81
:100A5800810300EBC303022283F842204BE001EB41
:100A6800810300EBC30393F850303BB901EB8103DA
:100A780000EBC303002283F842203CE001EB810332
:100A880000EBC303022283F8422034E0AAB901EB49
:100A9800810300EBC30393F8513033B901EB8103B1
:100AA80000EBC30383F8422025E001EB810300EB50
:100AB800C303022283F842201DE001EB810300EB0F
:100AC800C30393F850303BB901EB810300EBC30338
:100AD800002283F842200EE001EB810300EBC30300
:100AE800022283F8422006E001EB810300EBC303F6
:100AF800002283F8422001EB810300EBC303079A2D
:100B08005A649E64002283F85C20DA6483F8391002
:100B180083F85D2001EB8101C9003831027C014472
:100B2800006800F0CDFDF8BD30B583B00446056817
:100B3800D5F840340193D5F840340093009B23F056
:100B48002E030093019B13F0020F07D0019B13F0B3
:100B5800010F28D1009B43F002030093019B13F07F
:100B6800080F13D0009B43F008030093019B13F078
:100B7800040F34D0A369022B1CD0E368012B29D0C1
:100B88002046FFF7DAFD2046FFF7CAFD019B13F068
:100B9800200F03D0009B43F020030093009BC5F86F
:100BA800403403B030BDAB6923F00053AB61FFF7AD
:100BB800B7FDCFE7019B03F4C023B3F5802F04D022
:100BC8000121206800F00BFCDAE70221206800F020
:100BD80006FCD5E74EF66022C5F80424D0E7204687
:100BE800FFF7B1FDD5F8403423F02E03C5F84034A3
:100BF8002268936943F000539361C7E7F8B5064646
:100C08000C46076807EB411707F5A065AB6813F0BA
:100C1800040F3ED00423AB60EB6843F00203EB60A3
:100C2800AB6813F4007F6AD1AB6813F0010F00F0D2
:100C3800878033694BB104EB840306EBC3039A6CDA
:100C48002969C1F31201521ADA6404EB840306EB32
:100C5800C303012283F85D2000219965AA6093F8F7
:100C68003F30002B57D0022B55D0032B5DD1D7F83E
:100C7800003543F00053C7F8003504EB840306EB56
:100C8800C303012283F85C2021463046FFF754FD58
:100C98004BE0AB6813F0200F02D02023AB60BFE716
:100CA800AB6813F0080F17D1AB6813F4806FB7D097
:100CB800EB6843F00203EB60006800F086FC102349
:100CC800AB6004EB840306EBC303082283F85D20C2
:100CD8004FF48063AB60A3E7EB6843F00203EB607B
:100CE80001EB810300EBC303052283F85D20102389
:100CF800AB600823AB60006800F067FC90E7EB6826
:100D080043F00203EB602146306800F05EFC4FF4CC
:100D18000073AB6013E0EB6843F00203EB6021461D
:100D2800306800F052FC1023AB6004EB840306EB40
:100D3800C30393F8502082F0010283F85020F8BDD5
:100D4800AB6813F0020F5FD0EB6823F00203EB608F
:100D580004EB840306EBC30393F85D30012B17D033
:100D6800052B29D0062B2FD0082B2DD0032B16D1DD
:100D780004EB840306EBC303022283F85C20D7F854
:100D8800003523F0804343F00043C7F8003506E000
:100D980004EB840306EBC303012283F85C200223DF
:100DA800AB6004EB840306EBC30393F85C20214695
:100DB8003046FFF7C1FCC2E704EB840306EBC3032C
:100DC800052283F85C20EAE704EB840206EBC20202
:100DD800936D01339365032B0ED9134600229A6550
:100DE800042283F85C20D7F8003523F0804343F0D1
:100DF8000043C7F80035D2E704EB840306EBC303CE
:100E0800022283F85C20EEE7AB6813F0800F19D15B
:100E1800AB6813F0100F92D004EB840306EBC30306
:100E280093F83F30032B26D00BB1022B07D104EBEC
:100E3800840306EBC30300229A65336953B3102376
:100E4800AB607CE7EB6843F00203EB6004EB8403E0
:100E580006EBC3039A6D01329A6504EB840306EB33
:100E6800C303062283F85D202146306800F0ADFBFD
:100E78008023AB6063E704EB840306EBC303002223
:100E88009A65EB6843F00203EB602146306800F096
:100E98009CFBD4E704EB840306EBC303032283F82B
:100EA8005D20EB6843F00203EB602146306800F0F8
:100EB8008CFBC4E7F8B5036803EB411303F5A065A1
:100EC800AA6812F0040F06D00423AB60EB6843F065
:100ED8000203EB60F8BD06460C46AA6812F0200F24
:100EE8001ED02023AB6001EB810300EBC30393F812
:100EF8003D30012BEED101EB810300EBC30300224F
:100F080083F83D2001EB810300EBC303022283F841
:100F18005C20EB681343EB60006800F056FBD9E7F0
:100F2800AA6812F0400F34D1AA6812F4007F4AD19F
:100F3800AA6812F0010F51D1AA6812F0080F63D104
:100F4800AA6812F0100F70D001EB810300EBC30305
:100F580000229A65032283F85D2093F83D306BB92F
:100F680001EB810300EBC30393F83C3033B901EB89
:100F7800810300EBC303012283F83D20EB6843F0B3
:100F88000203EB602146306800F01FFB1023AB60C2
:100F9800A0E701EB810300EBC303042283F85D2083
:100FA800012283F83D2001EB810300EBC3030022FB
:100FB8009A65EB6843F00203EB60006800F005FBFC
:100FC8004023AB6086E7EB6843F00203EB60006800
:100FD80000F0FBFA4FF40073AB607BE78F0001EB86
:100FE800810300EBC30300229A65EB6843F0020318
:100FF800EB60006800F0E9FA0123AB603C4406EBC3
:10100800C40686F85D3065E70823AB60EB6843F0FB
:101018000203EB60006800F0D8FA04EB840406EBE6
:10102800C406052386F85D3054E7AA6812F0800FDD
:1010380035D1AA6812F4806F42D1AA6812F0020F63
:101048003FF448AFEA6822F00202EA6001EB81024D
:1010580000EBC20292F85D20012A45D0032A59D03C
:10106800042A6BD0052A70D0062A01D0082A58D144
:10107800282101FB04618A6D01328A65032A6AD935
:101088000A4600219165042182F85C10D3F80025F6
:1010980022F0804242F00042C3F8002541E0EB68AC
:1010A80043F00203EB60006800F08FFA04EB84045D
:1010B80006EBC406062386F85D308023AB6009E79B
:1010C800EB6843F00203EB60006800F07EFA10233F
:1010D800AB604FF48063AB6004EB840406EBC4069A
:1010E800082386F85D30F5E601EB810300EBC303C6
:1010F80083F85C2093F83F30023BDBB2934210D870
:10110800282303FB010393F8512082F0010283F89E
:10111800512006E001EB810300EBC303022283F8B0
:101128005C200223AB6004EB840306EBC30393F853
:101138005C2021463046FFF7FFFACBE6282303FB65
:101148000103022283F85C20EBE7282303FB010359
:1011580083F85C20E5E7282202FB0462022182F87A
:101168005C1093E7F8B504460568284600F033F9A3
:10117800012800D0F8BD206800F029F90028F9D02E
:10118800206800F024F910F4001F03D023684FF4FE
:1011980000125A61206800F01AF910F4801F03D079
:1011A80023684FF480125A61206800F010F910F09B
:1011B800806F03D023684FF080625A61206800F086
:1011C80006F910F0020F02D0236802225A61206843
:1011D80000F0FDF810F0005F25D1206800F0F7F866
:1011E80010F0807F31D1206800F0F1F810F0080F7E
:1011F8002FD1206800F0EBF810F0007F30D1206884
:1012080000F0E5F810F0100FB4D02268936923F0CD
:10121800100393612046FFF735FB2268936943F07A
:1012280010039361A6E7D5F8403423F02E03C5F8E0
:1012380040342046FFF77AFA0121206800F0CFF801
:1012480023684FF000525A61C7E72046FFF76CFC4D
:10125800C9E72046FFF75EFA236808225A61C8E703
:10126800206800F0ADF90746002604E0F1B22046F8
:10127800FFF720FE0136A368B34212D906F00F0328
:1012880027FA03F313F0010FF4D005EB4613D3F854
:10129800003513F4004FE9D0F1B22046FFF7AEFC59
:1012A800E8E723684FF000725A61A8E738B590F86C
:1012B800B832012B0ED00446012580F8B8520068D8
:1012C80000F02DF82946206800F0C8F8002084F8BE
:1012D800B80238BD0220FCE790F8B832012B0BD0D9
:1012E80010B50446012380F8B832006800F094FA7B
:1012F800002084F8B80210BD0220704708B50068C5
:1013080000F08DF808BD01EB810100EBC10191F8F7
:101318005C00704708B5006800F0C3F808BD836832
:1013280043F00103836000207047836823F00103C2
:101338008360002070470000890141F020010161AD
:1013480000230133054A934205D8026912F0200FA1
:10135800F7D1002070470320704700BF400D0300FD
:101368001023036100230133054A934205D802691B
:1013780012F0100FF7D1002070470320704700BF0C
:10138800400D030070B49DF80C4064B903339D0808
:10139800AC4208D200EB023303F5805351F8046BDA
:1013A8001E600134F4E7002070BC704710B40332AB
:1013B80094080023A34206D200F58052126841F82F
:1013C800042B0133F6E708465DF8044B7047426981
:1013D800806910407047406900F00100704710B400
:1013E80000F58064D0F8003423F00303C0F800341B
:1013F800D0F8003401F003021343C0F80034012987
:1014080005D0022907D000205DF8044B70474BF641
:1014180080336360F7E741F270736360F3E730B5D8
:1014280083B0044600250195D0F840340193019B10
:1014380023F02E030193019B43F48073C0F84034DA
:10144800642000F083FF019B23F48073C4F84034C8
:101458000A2000F07BFF284603B030BD82B000238D
:101468000193D0F840340193019B23F02E0301939C
:10147800019B13F4805F01D101290CD0019B13F467
:10148800805F05D021B9019B23F48053C0F8403414
:10149800002002B07047019B43F48053C0F84034E9
:1014A800ECE782B000230193D0F84034019301980F
:1014B800C0F3414002B07047F0B506469DF81840A9
:1014C80000EB411505F5A0604FF0FF378760032C4E
:1014D80065D8DFE804F00256021840F29D47C7605D
:1014E80012F0800F09D1F76B17F4807F59D0C768C5
:1014F80047F06007C76000200CE0C76847F48077B2
:10150800C760002006E040F29D67C76012F0800FB8
:1015180031D1002006F5806ED6F8187401F00F015D
:101528004FF0010C0CFA01F13943C6F81814B169EF
:1015380041F00071B16112F0800F34D100269DF89E
:101548001410022932D000219B0503F0FE53D20269
:1015580002F4F0421343A20402F440221343BDF8FC
:101568001C20C2F30A02134333430B43C5F800356A
:10157800032C1ED0F0BDC76847F48077C7600020F1
:10158800C8E740F22527C76012F0800F01D100207C
:10159800C0E7C76847F4C077C7600020BAE70120F2
:1015A800B8E70020B6E74FF40046C8E74FF400312B
:1015B800CAE7D5F8003543F00053C5F80035D9E738
:1015C80000F58060406980B2704710B400EB4111AB
:1015D80001F5A064D1F80035C3F3814213F4402F1C
:1015E80026D0022A24D0D1F8003543F08043C1F830
:1015F8000035D0F8103413F47F0347D1D1F8002513
:1016080022F00042C1F80025D1F8002542F000423E
:10161800C1F80025D1F8002522F40042C1F80025C0
:101628000133B3F57A7F2DD82268002AF8DB29E048
:10163800D1F8003543F08043C1F80035C36A13F48C
:101648007F0319D1D1F8002522F00042C1F8002506
:10165800D1F8002542F00042C1F80025D1F8002554
:1016680022F40042C1F800250133B3F57A7F09D886
:101678002268002AF8DB05E0D1F8003543F0004382
:10168800C1F8003500205DF8044B7047D1F80035EB
:1016980043F00043C1F80035F4E7000000EB4111C6
:1016A800064AC1F81025D1F8003523F0804343F0ED
:1016B8000043C1F800350020704700BF00000880D3
:1016C80070B582B04C78C36B13F4807F07D00B7968
:1016D8002BB912B94B79012B11D0012A13D00B6900
:1016E800E3B10D892B44013BB3FBF5F39BB2B3F592
:1016F800807F14D92D020D614FF480730FE02146CD
:10170800FFF7CCFF74E000EB4413D3F80C5525F039
:101718006005C3F80C5500234B71E0E70123CD7831
:101728001DB10D8905FB03F50D610D69C5F31205A2
:10173800374E06EAC3431D438B7A5B0703F0C04369
:1017480000EB44141D43C4F8105512B1CB68C4F81B
:10175800143500F58066B36813F0010FD4F800352E
:1017680023F00053C4F80035D4F800350CBF4FF00F
:10177800005500252B43C4F80035D4F80055254BF7
:101788001D601D6825F080451D60CB78C3B1214DD3
:101798002B6843F400432B601E4B1D6845F0004541
:1017A8001D601B68C4F8003512BBCB7803BB0B69FE
:1017B800F3B1CA79032A14D8DFE802F0081D081D1E
:1017C800144D2B6823F400432B60E5E70333C26A0A
:1017D80092B2C3F38F039A4203D2836943F0200382
:1017E8008361002300930B8A4A78C968FFF7CAFD12
:1017F800002002B070BD0333326992B2C3F38F0385
:101808009A42EED2836943F080638361E9E700BFBF
:101818000000F81F2800002070B505460446FFF7B1
:1018280084FD10212846FFF787FD2846FFF798FD1D
:1018380000220AE004EB4211D1F8003523F080239E
:1018480043F08043C1F8003501320F2AF2D9002055
:10185800034600E001300F2813D804EB401606F5C4
:10186800A061D6F8002522F4004242F04042C6F8B2
:1018780000250133B3F57A7FECD80A68002AF8DB33
:10188800E8E74FF0FF33C5F814346B612846FFF7DB
:1018980046FD002070BD0000002800F0D98170B519
:1018A80082B00446036813F0010F3BD0A64B9B6837
:1018B80003F00C03042B2CD0A34B9B6803F00C0300
:1018C800082B21D06368B3F5803F4FD0B3F5A02F24
:1018D80052D09D4B1A6822F480321A601A6822F49A
:1018E80080221A606368002B50D000F029FD05465D
:1018F800954B1B6813F4003F14D100F021FD401BE9
:101908006428F5D90320AAE18F4B5B6813F4800F94
:10191800D8D08D4B1B6813F4003F03D06368002BAD
:1019280000F09881236813F0020F54D0864B9B680F
:1019380013F00C0F3ED0844B9B6803F00C03082B6C
:1019480033D0E368002B67D0804B01221A6000F087
:10195800F7FC05467C4B1B6813F0020F53D100F0CF
:10196800EFFC401B0228F5D9032078E1764A13687A
:1019780043F480331360B5E7734B1A6842F480224E
:101988001A601A6842F480321A60ABE700F0D8FC9B
:1019980005466D4B1B6813F4003FC3D000F0D0FC24
:1019A800401B6428F5D9032059E1674B5B6813F4A1
:1019B800800FC6D1644B1B6813F0020F03D0E36895
:1019C800012B40F04981604A136823F0F80321692C
:1019D80043EAC1031360236813F0080F40D063691A
:1019E80063B35B4B01221A6000F0AAFC0546564B14
:1019F8005B6F13F0020F33D100F0A2FC401B0228EA
:101A0800F5D903202BE1504A136823F0F803216924
:101A180043EAC1031360DEE74C4B00221A6000F072
:101A28008FFC0546484B1B6813F0020FD3D000F01B
:101A380087FC401B0228F5D9032010E1444B002203
:101A48001A6000F07DFC05463F4B5B6F13F0020FF8
:101A580006D000F075FC401B0228F5D90320FEE0F3
:101A6800236813F0040F78D0374B1B6C13F0805F9A
:101A78000DD100230193344B1A6C42F080521A6442
:101A88001B6C03F080530193019B012500E00025A6
:101A9800304B1B6813F4807F21D0A368012B32D010
:101AA800052B36D0284B1A6F22F001021A671A6FDD
:101AB80022F004021A67A368002B34D000F040FC1F
:101AC8000646214B1B6F13F0020F45D100F038FC7E
:101AD800801B41F288339842F3D90320BFE01D4AA6
:101AE800136843F48073136000F02AFC0646194B10
:101AF8001B6813F4807FD0D100F022FC801B0228E1
:101B0800F5D90320ABE0104A136F43F001031367C4
:101B1800D1E70D4B1A6F42F004021A671A6F42F0B0
:101B280001021A67C7E700F00BFC0646064B1B6F5D
:101B380013F0020F10D000F003FC801B41F2883331
:101B48009842F3D903208AE0003802400000474257
:101B5800800E474200700040E5B9A369002B7DD094
:101B6800464A926802F00C02082A51D0022B17D07C
:101B7800434B00221A6000F0E3FB04463F4B1B680E
:101B880013F0007F42D000F0DBFB001B0228F5D9E0
:101B9800032064E0394A136C23F080531364DCE7B4
:101BA800374B00221A6000F0CBFB0546334B1B680D
:101BB80013F0007F06D000F0C3FB401B0228F5D9C4
:101BC80003204CE0E369226A1343626A43EA821302
:101BD800A26A5208013A43EA0243E26A43EA02630C
:101BE800264A5360264B01221A6000F0A9FB0446DE
:101BF800224B1B6813F0007F06D100F0A1FB001BED
:101C08000228F5D903202AE0002028E0002026E059
:101C1800012B26D0194B9B6803F48001E26991429D
:101C280021D103F03F02216A8A421ED1616A47F638
:101C3800C0721A408A421AD103F44032A16A8A4219
:101C480017D103F07063E26A934214D1002006E0D2
:101C580001207047012002E0012000E0002002B0CE
:101C680070BD0120FBE70120F9E70120F7E701201B
:101C7800F5E70120F3E70120F1E700BF0038024053
:101C880060004742F8B52F4B9B6803F00C03042B08
:101C980053D0082B53D12B4B5A6802F03F025B6894
:101CA80013F4800F28D0274B5B68C3F388135801BF
:101CB8000021C01A61F100018E0146EA9066870191
:101CC8003C1A66EB0105E90041EA5471E000C018CE
:101CD80041F100014B0243EAD05344022046194621
:101CE8000023FEF76DFA174B5B68C3F3014301331A
:101CF8005B00B0FBF3F023E0124B5B68C3F388137F
:101D08005C010025E41A65F10005AE0146EA946617
:101D1800A701381B66EB0501CC0044EA5074C500E6
:101D2800E81844F100018B0243EA905384022046EC
:101D380019460023FEF744FAD5E7034800E00348B4
:101D4800F8BD00BF0038024000127A000024F400F9
:101D5800002800F09B8070B50D4604464F4B1B6869
:101D680003F00F038B4208D2CBB24C4A13701368AE
:101D780003F00F038B4240F08B80236813F0020FAF
:101D880017D013F0040F04D0454A936843F4E05386
:101D98009360236813F0080F04D0414A936843F412
:101DA800604393603E4A936823F0F003A1680B43B5
:101DB8009360236813F0010F32D06368012B21D0A0
:101DC8009A1E012A25D9364A126812F0020F61D0EC
:101DD80033498A6822F0030213438B6000F0B0FA9B
:101DE80006462F4B9B6803F00C036268B3EB820F27
:101DF80016D000F0A5FA801B41F288339842F0D93A
:101E0800032042E0264A126812F4003FE0D1012084
:101E18003BE0234A126812F0007FD9D1012034E058
:101E28001E4B1B6803F00F03AB4207D9EAB21B4BEA
:101E38001A701B6803F00F03AB422DD1236813F00F
:101E4800040F06D0164A936823F4E053E1680B4365
:101E58009360236813F0080F07D0114A936823F49E
:101E68006043216943EAC1039360FFF70BFF0C4B02
:101E78009B68C3F303130B4AD35CD8400A4B186022
:101E88000A4B186800F010FA002070BD0120704756
:101E98000120FAE70120F8E70120F6E7003C0240BC
:101EA80000380240842E00080800002004000020AA
:101EB80030B583B00446036813F0050F06D12368D4
:101EC80013F0020F2ED1002003B030BD494B002281
:101ED8001A6000F035FA0546474B1B6813F0006F8F
:101EE80006D000F02DFA431B022BF5D90320EBE7AF
:101EF8006268A3681B0743EA82133F4AC2F884302A
:101F08003C4B01221A6000F01BFA05463A4B1B684D
:101F180013F0006FD3D100F013FA431B022BF5D94D
:101F28000320D1E700230193334B1A6C42F080520F
:101F38001A641B6C03F080530193019B2F4A1368AA
:101F480043F48073136000F0FBF905462B4B1B68C4
:101F580013F4807F06D100F0F3F9431B022BF5D967
:101F68000320B1E7244B1B6F13F4407312D0E268CF
:101F780002F440729A420DD01F4B1A6F22F440723D
:101F88001F4901200860002008601A671B6F13F0C2
:101F9800010F13D1E36803F44072B2F5407F1ED0FD
:101FA800154A936823F4F813936013490B6FE2689A
:101FB800C2F30B0213430B67002085E700F0C0F95A
:101FC80005460D4B1B6F13F0020FE3D100F0B8F973
:101FD800401B41F288339842F3D9032074E706493D
:101FE8008A6822F4F81223F0704323F440731343F1
:101FF8008B60DAE768004742003802400070004012
:10200800400E474200230F2B00F2D980F0B583B071
:1020180039E0072200E00022B2403A430234684E19
:1020280046F82420674A1468EA4324EA05064F68FC
:1020380017F4803F01D045EA0406624C26606468C4
:1020480002EA04064F6817F4003F01D045EA040687
:102058005C4C6660A46802EA04064F6817F4801FA7
:1020680001D045EA0406574CA660E46822404E6851
:1020780016F4001F01D045EA0402524CE260013315
:102088000F2B00F29A8001229A400C6804EA02059C
:1020980032EA0404F3D14C68661E012E03D9112CD0
:1020A80001D0122C12D186685F000324BC4026EAB6
:1020B8000406CC68BC4034438460466826EA0206BD
:1020C8004C68C4F300129A4032434260C7685E000D
:1020D8000324B440E24327EA04078C68B4403C4335
:1020E800C4604C68022C01D0122C13D1DF080837C9
:1020F80050F827E003F007044FEA840C0F2404FA91
:102108000CF42EEA040E0C6904FA0CF444EA0E04EA
:1021180040F82740046814404A6802F00302B240BD
:10212800224302604A6812F0805FA8D00022019220
:10213800254A546C44F480445464526C02F480423E
:102148000192019A9C08A61C1D4A52F8267003F0B9
:10215800030296000F22B24027EA02071B4A904268
:102168003FF459AF02F5806290421AD002F58062BE
:10217800904218D002F58062904216D002F5806233
:10218800904214D002F58062904212D002F580622B
:10219800904210D002F5806290423FF43AAF082294
:1021A8003AE7012238E7022236E7032234E704221D
:1021B80032E7052230E706222EE703B0F0BD70476C
:1021C80000380140003C0140003802400000024055
:1021D8000AB181617047090481617047436931EA36
:1021E800030301D0816170470904816170470000D1
:1021F800074AD36823F4E0631B041B0C000200F4B5
:10220800E060034343F0BF6343F40033D360704797
:1022180000ED00E030B4174BDB68C3F30223C3F1D1
:102228000704042C28BF04241D1D062D18D9033BC0
:102238004FF0FF3505FA04F421EA0401994005FA44
:1022480003F322EA0303194300280BDB0901C9B28F
:1022580000F1604000F5614080F8001330BC704721
:102268000023E5E700F00F000901C9B2024B195439
:10227800F4E700BF00ED00E014ED00E00138B0F134
:10228800807F0AD2064B5860064AF02182F8231054
:102298000020986007221A6070470120704700BF2D
:1022A80010E000E000ED00E010B504460E4B187891
:1022B8004FF47A73B3FBF0F30C4A1068B0FBF3F0F9
:1022C800FFF7DCFF68B90F2C01D901200AE00022D2
:1022D80021464FF0FF30FFF79DFF054B1C600020A3
:1022E80000E0012010BD00BF000000200800002011
:1022F8000400002008B50B4B1A6842F400721A60FB
:102308001A6842F480621A601A6842F480721A608D
:102318000320FFF76DFF0020FFF7C6FFFEF792FAD4
:10232800002008BD003C0240034A1168034B1B789B
:102338000B441360704700BFBC060020000000205B
:10234800014B1868704700BFBC06002038B504462A
:10235800FFF7F6FF0546B4F1FF3F02D0044B1B78A8
:102368001C44FFF7EDFF401BA042FAD338BD00BF65
:1023780000000020054BD3F8882042F47002C3F80F
:1023880088204FF000629A60704700BF00ED00E0BF
:1023980010B40446002305E003F1E002002144F8EC
:1023A800221001330E2BF7D90023B3F5007F05D295
:1023B800E218002182F81C110133F6E70020207092
:1023C80060700123A370C4F8BC0323764022A27175
:1023D800607684F81C0384F81D335DF8044B70475D
:1023E80008B50378DBB20B2B00D008BDD0F87833E2
:1023F800002BFAD09B699847F7E770B584B004467C
:102408004578072D00F2A280DFE805F0042A325B48
:10241800646D7E8F082100F0DDFB08B1012587E09F
:1024280094F82933A371012565700293002601965B
:1024380094F81D33009394F81C33802221792046A8
:1024480000F08EFCA3790293019694F81D33009353
:1024580094F81C3332466179204600F081FC67E02D
:10246800122100F0B7FB002862D1022363705FE0FD
:10247800012100F0F9FB08B1012559E00220FEF71F
:102488007EF9012584F81C5303236370A379029312
:102498000026019694F81D3300932B46802221795B
:1024A800204600F05DFCA3790293019694F81D3351
:1024B800009394F81C3332466179204600F050FCB2
:1024C80036E0092100F09FFB002841D10423637006
:1024D80001252DE0B0F8361300F095FBD0BB05239D
:1024E8006370012524E090F8301319B9062343706E
:1024F80001251DE0FF2300F58E7200F09DFB58BBFF
:1025080006236370012513E090F8311319B90723E6
:10251800437001250CE0FF2300F58E7200F08CFB60
:10252800E0B907236370012502E090F8325315B92A
:10253800284604B070BDFF2300F58E72294600F0CE
:102548007BFB05460028F3D00125F1E70125EFE7DD
:102558000125EDE70125EBE70125E9E70125E7E797
:1025680008B5D0F8BC230132C0F8BC23FFF738FF08
:1025780008BD012380F81F337047002380F81F33FC
:10258800704790F81F03704730B587B004460223A0
:102598008DF81730FFF7F5FF38B923782BB123787A
:1025A800DBB2032B01D0032323702378DBB20B2B80
:1025B8004AD8DFE803F006131AD0494CB55E6872B2
:1025C80083C794F81E33002B3ED001232370C82004
:1025D800FEF7D5F82046FEF7F0F835E094F81F33FB
:1025E800012B31D1022323702EE06420FEF7C7F8B7
:1025F8002046FEF7AEF884F81D030523237000215A
:10260800204600F0BDFB60718021204600F0B8FB39
:1026180001462071A37902930025019594F81D3392
:10262800009394F81C338022204600F099FBA3798C
:102638000293019594F81D33009394F81C332A46AD
:102648006179204600F08CFB002007B030BD2046A1
:10265800FFF7D3FE0028F7D1002384F8203394F83D
:102668003333012B02D007232370EDE708232370AF
:10267800EAE7D4F8C833002BE6D001212046984772
:1026880008232370E0E794F83913204600F0FDFA98
:102698000028D9D109232370D6E794F83B3313F0E7
:1026A800200F02D10A232370CEE70121204600F033
:1026B800FDFA0028C8D10A232370C5E7D4F87C3373
:1026C800002BC1D00023C4F8783373B1D4F8783321
:1026D8001BB39B6820469847E0B906232370D4F8BB
:1026E800C833032120469847AEE703F1DC0204EB28
:1026F80082025268117994F84323914202D001333F
:10270800DBB2E2E703F1DC0204EB82025268C4F8B0
:102718007823F4E70D23237096E70D23237093E7BE
:10272800D4F878335BB11B69204698478DF81700B9
:102738009DF81730002B87D10B23237084E70D23D6
:10274800237081E7D4F87833002B3FF47DAF5B69C1
:102758002046984778E72046FFF71AFED4F87833E2
:10276800002B3FF471AFDB68204698470023C4F87C
:10277800783369E708B503784BB9012380F81E332D
:10278800D0F8C8330BB104219847002008BD90F851
:102798001F33012BF9D102230370F6E710B5044665
:1027A800FEF703F82179204600F0FBFA617920460C
:1027B80000F0F7FA002384F81E33D4F8C83313B1B5
:1027C8000521204698472046FDF7E7FF032323709D
:1027D800002010BD10B40B7803704B7843708B78D1
:1027E800CC7843EA042343800B7903714B79437116
:1027F8008B798371CB79C371082A16D90B7A4A7AF7
:1028080043EA022303818B7ACA7A43EA022343818B
:102818000B7B4A7B43EA022383818B7B8373CB7BCD
:10282800C3730B7C03744B7C43745DF8044B704793
:102838000B7803704B7843708B788370CB78C370B8
:102848000B7903714B7943718B798371CB79C371A0
:102858000B7A037270470B7803704B7843708B7850
:102868008370CB78C3700B794A7943EA022383805B
:102878008B79837170474378032B00D070470378B6
:10288800023B9A4228BF1A4692B2002393420DD2C5
:1028980010B4C418A47801F8014B02339BB29342D8
:1028A800F7D300230B705DF8044B704700230B70BF
:1028B800704730B583B00446057E6B1E0A2B00F2C4
:1028C800D780DFE803F00610354154617E8A9DAA5F
:1028D800C100427900F1100100F0F9F902232376D2
:1028E800284603B030BD4179FDF743FF054601286E
:1028F80005D0042818D0022816D00125F0E7237C3B
:10290800E28A42B113F0800F02D105232376E7E76C
:1029180003232376E4E713F0800F02D107232376FD
:10292800DEE709232376DBE70B2323760125D7E7A8
:10293800D0F8BC33C38103798289816800F0EEF94D
:10294800042323760125CBE70179FDF712FF01283F
:1029580006D0052800F08E80042804D00125BFE7A2
:1029680009232376F5E70B2323760125B8E701250C
:10297800009543798289816800F0BAF9D4F8BC33AC
:10298800E38106232376ABE74179FDF7F2FE05469E
:10299800012807D0052808D002280AD004280CD01E
:1029A80001259DE7072323769AE70C232376032541
:1029B80096E705232376012592E70B232376022544
:1029C8008EE703790022114600F0A8F9D4F8BC3349
:1029D800E38108232376012582E70179FDF7C9FE03
:1029E800012805D0042807D0052845D0012577E718
:1029F8000D232376002573E70B23237601256FE744
:102A08000125009543790022114600F071F9D4F8A8
:102A1800BC33E3810A23237662E74179FDF7A9FEF7
:102A2800012805D0022807D0042809D0012557E736
:102A38000D232376002553E70923237601254FE745
:102A48000B23237601254BE7437E0133DBB2437624
:102A5800022B07D9D0F8C83306219847002363769C
:102A680002253DE7FDF7A1FE01252576A57037E78C
:102A7800012535E7032533E7032531E703780A887D
:102A880013440B800378184470472DE9F04182B055
:102A98000C460B7803704B7843708B78C97843EAFF
:102AA800012343802379037163794371A379837187
:102AB800E379C371237A0372092A44D905460923A5
:102AC800ADF806300026012E3DD86A88BDF80630DC
:102AD8009A4238D90DF106012046FFF7CFFF044688
:102AE8004378042BEFD1B0461A2000FB06F00830DB
:102AF800284421460230FFF79BFE00271A2303FBD8
:102B080008539B7BBB421BD96A88BDF806309A42A2
:102B180016D90DF106012046FFF7B0FF04464378A9
:102B2800052BEBD101371A2000FB08F000EBC7009A
:102B38000830284421460430FFF78DFEFFB2DDE758
:102B48000136F6B2BFE702B0BDE8F08110B5044621
:102B58008078012803D0022808D0012010BDA16088
:102B6800A281012323760223A370F7E72046FFF70B
:102B7800A0FE20B90123A37000232376EEE70328E3
:102B880004D00228EAD10123A370E7E70123A37048
:102B980000232376E2E738B50D4614461946BDF8FA
:102BA80010208378012B02D0FFF7D0FF38BD65F0E5
:102BB8007F05057406234374448204F47F44B4F506
:102BC800407F03D000238382C282EDE740F20943AD
:102BD8008382F9E7F0B583B0044600F58E760D469A
:102BE800009133464FF480720021FFF7D4FF074667
:102BF80010B1384603B0F0BD2A46314604F22230FF
:102C0800FFF7E8FDF5E7F0B583B004460D4600F19F
:102C18001C06009133464FF400720021FFF7BBFFFA
:102C2800074610B1384603B0F0BD2A46314604F5D0
:102C38004D70FFF72AFFF5E7F0B583B016461D463D
:102C480000F58E740093234641F440720021FFF78B
:102C5800A2FF074610B1384603B0F0BD2A463146F8
:102C68002046FFF708FEF6E708B58378012B04D065
:102C780000221146FFF76AFF08BD002303740522EE
:102C8800427441828382C382F2E708B58378012BBC
:102C980004D000221146FFF759FF08BD0023037432
:102CA8000922427441828382C382F2E708B583789D
:102CB800012B04D000221146FFF748FF08BD00236E
:102CC80003740322427441828382C382F2E710B5FF
:102CD80084B00B4611460024039408220292019303
:102CE800009423462246FDF783FD204604B010BD1C
:102CF80030B585B00C4619469DF8203090F81D5324
:102D080005B1002303930292019401230093002349
:102D18001A46FDF76DFD002005B030BD30B585B011
:102D28000D4619460024039402920195012200924F
:102D38002346FDF75DFD204605B030BD00230A2B74
:102D48000BD803F1E00250F8222012F4004F02D011
:102D58000133DBB2F3E798B270474FF6FF70704764
:102D680010B584B0BDF8204002949DF81C40019431
:102D78009DF818400094FDF728FD002004B010BD10
:102D880038B505460C46FFF7D9FF4FF6FF73984252
:102D980005D044F4004400F1E00345F82340C0B2F4
:102DA80038BD0A2906D8E03150F82130C3F30E03A4
:102DB80040F8213000207047DFF834D0002103E0CC
:102DC8000C4B5B58435004310B480C4B42189A4249
:102DD800F6D30B4A02E0002342F8043B094B9A421F
:102DE800F9D3FFF7C7FA00F011F8FDF775FC704743
:102DF80000000220A42E0008000000200C00002083
:102E08000C000020C0060020FEE7000070B50D4D44
:102E18000D4C641BA4100026A64209D10B4D0C4C86
:102E280000F020F8641BA4100026A64205D170BD4E
:102E380055F8043B98470136EEE755F8043B9847A8
:102E48000136F2E79C2E00089C2E00089C2E0008F4
:102E5800A02E000802440346934200D1704703F8AD
:102E6800011BF9E7F8B500BFF8BC08BC9E467047DF
:0C2E7800F8B500BFF8BC08BC9E467047CF
:102E84000000000000000000010203040607080916
:082E940064D3FF7F0100000080
:042E9C00AD0100087C
:042EA000890100089C
:0C2EA40001000000100000000024F400F9
:0400000508002DC101
:00000001FF
