:020000040800F2
:1000000000000220F5420008050B0008070B00085D
:10001000090B00080B0B00080D0B00080000000086
:100020000000000000000000000000000F0B0008AE
:10003000110B000800000000130B0008150B00084E
:100040004543000845430008454300084543000870
:100050004543000845430008454300084543000860
:100060004543000845430008454300084543000850
:100070004543000845430008454300084543000840
:100080004543000845430008454300084543000830
:100090004543000845430008454300084543000820
:1000A0004543000845430008454300084543000810
:1000B0004543000845430008454300084543000800
:1000C00045430008454300084543000845430008F0
:1000D00045430008454300084543000845430008E0
:1000E00045430008454300084543000845430008D0
:1000F00045430008454300084543000845430008C0
:1001000045430008454300084543000845430008AF
:10011000454300084543000845430008454300089F
:10012000454300084543000845430008454300088F
:10013000454300084543000845430008454300087F
:100140004543000845430008454300081D0B0008CF
:10015000454300084543000845430008454300085F
:10016000454300084543000845430008454300084F
:1001700045430008454300084543000800000000CF
:08018000454300084543000857
:1001880010B5054C237833B9044B13B10448AFF3C9
:1001980000800123237010BD9000002000000000A3
:1001A8006C45000808B5034B1BB103490348AFF37E
:1001B800008008BD00000000940000206C45000885
:1001C80053B94AB9002908BF00281CBF4FF0FF31B6
:1001D8004FF0FF3000F06EB9ADF1080C6DE904CEB8
:1001E80000F006F8DDF804E0DDE9022304B070470A
:1001F8002DE9F047089D04468C46002B40F083808B
:100208008A42174647D9B2FA82F242B1C2F12000B7
:1002180024FA00F09140974040EA010C94404FEADC
:100228001748230CBCFBF8F61FFA87FE08FB16C11B
:1002380043EA014306FB0EF1994209D9FB1806F17E
:10024800FF3080F01981994240F21681023E3B440A
:100258005B1AA4B2B3FBF8F008FB103344EA03447A
:1002680000FB0EFEA64509D93C1900F1FF3380F0CA
:100278000581A64540F2028102383C4440EA064026
:10028800A4EB0E0400261DB1D4400023C5E90043A9
:100298003146BDE8F08702B9FFDEB2FA82F2002AE1
:1002A80050D1CB1B4FEA174E1FFA87F80126B3FB34
:1002B800FEFC210C0EFB1C3341EA034108FB0CF346
:1002C8008B4207D979180CF1FF3002D28B4200F229
:1002D800E9808446C91AA3B2B1FBFEF00EFB1011E7
:1002E80043EA014408FB00F8A04507D93C1900F18E
:1002F800FF3302D2A04500F2D9801846A4EB0804C7
:1003080040EA0C40BFE78B4209D9002D00F0B180CC
:100318000026C5E9000130463146BDE8F087B3FA4A
:1003280083F6002E4AD18B4202D3824200F2B88073
:10033800841A61EB030101208C46002DA8D0C5E981
:10034800004CA5E7C2F1200320FA03F6974001FA12
:1003580002F04FEA174ED9403043030CB1FBFEF6CA
:100368001FFA87F80EFB161143EA014306FB08F152
:10037800994204FA02F409D9FB1806F1FF3C80F00F
:100388008D80994240F28A80023E3B445B1A81B2DA
:10039800B3FBFEF00EFB103341EA034100FB08F308
:1003A8008B4207D9791800F1FF3C73D28B4271D97F
:1003B80002383944CB1A40EA064678E7C6F1200CE1
:1003C80003FA06F422FA0CF31C4320FA0CF701FA9C
:1003D80006F34FEA144E21FA0CF11F433B0CB1FB14
:1003E800FEF91FFA84F80EFB191143EA014109FBD3
:1003F80008FA8A4502FA06F200FA06F308D96118E3
:1004080009F1FF3048D28A4546D9A9F102092144A9
:10041800A1EB0A01BFB2B1FBFEF00EFB101147EAD7
:10042800014700FB08F8B84507D9E71900F1FF3183
:100438002ED2B8452CD90238274440EA0940A7EB08
:100448000807A0FB02894F45C64649461AD317D06C
:100458005DB1B3EB0E0267EB010707FA0CFCF24043
:100468004CEA0202F740C5E9002700263146BDE8FC
:10047800F0872E4628460BE70646E9E61846FDE6CD
:100488004345E5D2B8EB020E69EB04010138DFE71A
:100498000846D2E760468DE78146B9E7664675E7C4
:1004A80030464AE7ACF1020C394413E702383C44C1
:1004B80024E700BF704700BF2DE9F04F8DB000243E
:1004C8000794089409940A940B940194614B1A6B4D
:1004D80042F010021A631A6B02F010020192019A9C
:1004E80002941A6B42F004021A631A6B02F00402B7
:1004F8000292029A03941A6B42F080021A631A6BF2
:1005080002F080020392039A04941A6B42F00102EB
:100518001A631A6B02F001020492049A05941A6B8A
:1005280042F002021A631A6B02F002020592059A5F
:1005380006941A6B42F008021A631B6B03F0080357
:100548000693069B444F22460821384602F026FAB5
:10055800DFF810A101221146504602F01FFA3F4E63
:1005680022464FF48051304602F018FADFF8F8902E
:1005780022464FF21021484602F010FA4FF00808C0
:10058800CDF81C800125089509940A9407A93846D6
:1005980002F01EF90795089509940A9407A9504690
:1005A80002F016F9CDF81C804FF00208CDF8208033
:1005B80009940A944FF0050BCDF82CB007A95046C2
:1005C80002F006F90795DFF8A4A0CDF820A0099459
:1005D80007A9234802F0FCF8042307930894099418
:1005E80007A9304602F0F4F84FF480630793CDF87A
:1005F800208009940A94CDF82CB007A9304602F05F
:10060800E7F84FF480530793089509940A9407A9CB
:10061800304602F0DDF84FF210230793089509944D
:100628000A9407A9484602F0D3F8202307930894B0
:10063800099407A9484602F0CBF8CDF81C80CDF8FC
:1006480020A0099407A9384602F0C2F80DB0BDE809
:10065800F08F00BF00380240001002400004024042
:100668000000024000080240000C02400000121086
:1006780008B50948094B0360094B436000238360B0
:10068800C3604FF48042026143618361C3610362C6
:1006980002F05AFA08BD00BFC00000200054004014
:1006A800A086010008B50948094B03604FF40072A1
:1006B800426000238360C3600261064A426183612D
:1006C800C361036202F01EFB08BD00BF6C0100207D
:1006D800003C00400077010008B50B480B4B036055
:1006E8004FF48273436000238360C36003614361F6
:1006F8004FF400728261C3610362436283620A231A
:10070800C36202F0FDFD08BD140100200030014065
:1007180070B598B0302200210DEB020003F044FEC2
:1007280000240794089409940A940B94039404945D
:10073800059406940194204B1A6C42F080521A6476
:100748001B6C03F080530193019B02941B4B1A68A6
:1007580042F480421A601B6803F480430293029BB0
:1007680001260C964FF480330D93022512954FF411
:1007780080031393082314934FF4A87315931695C5
:10078800072317930CA801F01DFC0F230793089566
:1007980009944FF4A0530A934FF480530B93052107
:1007A80007A801F06BFE0396C0230493059503A8E0
:1007B80001F02AFF18B070BD0038024000700040F8
:1007C80008B502F081F9FFF7A3FFFFF775FEFFF701
:1007D8004FFFFFF767FFFFF77FFF00F02DF800F0EE
:1007E8004BF8084C00224FF48041204602F0D6F81E
:1007F800642002F095F901224FF48041204602F06E
:10080800CDF8ECE7000C02407047000004290CD03A
:10081800052902D0022904D07047064B03221A701A
:100828007047044B02221A707047024B01221A705B
:10083800F2E700BFAC00002008B501220B490C48C4
:1008480002F094FE48B90B49094802F0A6FE38B9EF
:10085800074802F0E6FE30B908BDFFF7D5FFF2E71A
:10086800FFF7D2FFF4E7FFF7CFFFF5E71508000819
:10087800B40100200C00002008B5024802F0F2FE86
:1008880008BD00BFB401002070B588B000230393F1
:1008980004930593069307930368B3F1A04F01D01F
:1008A80008B070BD002401941B4D2B6B43F001036D
:1008B8002B632B6B03F001030193019B4FF400732F
:1008C800039304940594154E03A9304601F080FF64
:1008D8004FF4E053039302230493059406940A23E8
:1008E800079303A9304601F073FF6B6B43F0800355
:1008F8006B6302946B6C43F480436B646B6C03F41E
:1009080080430293029B22462146432002F05EF870
:10091800432002F08FF8C3E700380240000002408D
:1009280008B5D0F8C00202F089FE08BD08B5D0F8B5
:10093800C00202F08DFF08BD08B5D0F8C00202F071
:100948009BFF08BD704708B5D0F8C00202F07FFED3
:1009580008BD08B5D0F8C00202F07DFE08BD000051
:1009680090F8C033012B01D00020704710B5044621
:100978000F48C0F8C042C4F8C4034FF0A043036056
:10098800082383600123C36000230361022282617C
:10099800C36100F046FA40B9054800F04DFF014632
:1009A800204602F048FE002010BDFFF72DFFF3E7B8
:1009B8008005002008B5D0F8C40300F042FF0128E4
:1009C80004D0022804D000B1012008BD0120FCE7B2
:1009D8000220FAE708B5D0F8C40300F027FF08BDE5
:1009E80008B5D0F8C40300F01AFF08BD08B590F8A0
:1009F800C033012B04D0C82002F092F8002008BDB3
:100A0800084600F06FF8F6E7D0F8C43301EB810030
:100A180003EBC00090F83B0038B101EB810103EB18
:100A2800C10181F850200020704701EB810103EBE0
:100A3800C10181F85120F6E708B502F071F808BD48
:100A4800022805D8DFE800F00504020001207047FD
:100A58000220704708B5D0F8C40300F0B3FEFFF7D2
:100A6800EFFF08BD08B5D0F8C40300F0C1FEFFF7DA
:100A7800E7FF08BD08B5D0F8C40300F0CBFEFFF7C8
:100A8800DFFF08BD10B584B0D0F8C403BDF820401E
:100A980002949DF81C4001949DF81840009400F0C1
:100AA80063F9FFF7CDFF04B010BD08B5D0F8C40353
:100AB80000F0A5F9FFF7C4FF08BD10B584B0D0F861
:100AC800C4039DF824400394BDF820400294079C79
:100AD80001949DF81840009400F0EDF9FFF7B0FF7D
:100AE80004B010BD08B528B901220121024801F05F
:100AF80055FF08BD0022F8E7000802407047FEE7EE
:100B0800FEE7FEE7FEE770477047704708B501F05B
:100B1800F5FF08BD08B5024800F0B0FD08BD00BFEC
:100B28008005002000B583B0002100910C4B5A6C61
:100B380042F480425A645A6C02F480420092009A4D
:100B480001911A6C42F080521A641B6C03F08053B6
:100B58000193019B072001F027FF03B05DF804FB18
:100B68000038024030B589B00023039304930593FD
:100B7800069307930268154B9A4201D009B030BD1D
:100B880000250195124C236B43F002032363236B6A
:100B980003F002030193019B4FF410730393122394
:100BA80004930123059306950423079303A9094891
:100BB80001F00EFE0295236C43F400132364236CAA
:100BC80003F400130293029BD8E700BF00540040CF
:100BD800003802400004024070B588B00023039337
:100BE800049305930693079302681F4B9A4201D01A
:100BF80008B070BD0024009403F5FE331A6C42F46B
:100C080000421A641A6C02F400420092009A01949D
:100C18001A6B42F001021A631A6B02F00102019288
:100C2800019A02941A6B42F004021A631B6B03F0D8
:100C380004030293029B102303930226049605944F
:100C480006940625079503A9084801F0C1FD4FF44D
:100C5800A4530393049605940694079503A904489E
:100C680001F0B6FDC4E700BF003C004000000240B0
:100C78000008024000B589B000230393049305934C
:100C8800069307930268154B9A4202D009B05DF8A3
:100C980004FB0022019203F58433596C41F480511E
:100CA8005964596C01F48051019101990292196BB0
:100CB80041F0010119631B6B03F001030293029BCE
:100CC800E0230393022304930592069205230793D6
:100CD80003A9034801F07CFDD8E700BF00300140BC
:100CE80000000240F8B50668346A04F00F07C4F340
:100CF8004343C4F30A14022B00D0F8BD0546002C68
:100D0800FBD007EB870300EBC303596C0029F4D031
:100D18002246304600F05CFE07EB870305EBC30371
:100D28005A6C22445A64DA6C2244DA6406EB471699
:100D3800D6F810250B4B1340002BDED0D6F8003523
:100D480023F0804343F00043C6F8003507EB8703E0
:100D580005EBC30393F8502082F0010283F850207A
:100D6800CBE700BF0000F81FF0B585B004469DF83A
:100D780028509DF82C60BDF8307090F8B802012812
:100D88003BD0012084F8B80201EB810004EBC000DD
:100D98004FF0000C80F83DC080F83830A0F8407063
:100DA80080F8391080F83F6002F07F0C80F83AC074
:100DB80012F0800F18D101EB810004EBC0004FF056
:100DC800000C80F83BC001EB810004EBC00080F808
:100DD8003C50029701960095206800F003FF00231D
:100DE80084F8B83205B0F0BD01EB810004EBC00017
:100DF8004FF0010C80F83BC0E5E70220F2E790F8DD
:100E0800B832012B0BD010B50446012380F8B83254
:100E1800006800F070FF002084F8B80210BD0220BE
:100E28007047002845D0F0B58BB00646046890F8A6
:100E3800B932002B38D0032386F8B932E36B13F4A8
:100E4800807F01D100233361306800F068FD3446AB
:100E580054F810CB6D460FCC0FC50FCC0FC594E8D6
:100E6800030085E80300371D97E80E00604600F090
:100E78000BFD0121306800F058FD344654F810CBC2
:100E88006D460FCC0FC50FCC0FC594E8030085E85D
:100E9800030097E80E00604600F016FE012386F86E
:100EA800B93200200BB0F0BD80F8B832FFF7ECFC87
:100EB800C1E701207047F8B59DF81850BDF82060CB
:100EC80001EB810400EBC40484F83B2084F83F3034
:100ED8006DB901EB810400EBC404032784F8427068
:100EE800032B00F29480DFE803F00A8B2F5D01EBFF
:100EF800810400EBC404022784F84270F0E7012D56
:100F080040F08580002A40F0828036B901EB8103E9
:100F180000EBC303012283F8512001EB810300EBAE
:100F2800C30393F851303BB901EB810300EBC303D2
:100F3800002283F842206AE001EB810300EBC3033F
:100F4800022283F8422062E0AAB901EB810300EB98
:100F5800C30393F8513033B901EB810300EBC303AA
:100F680083F8422053E001EB810300EBC303022224
:100F780083F842204BE001EB810300EBC30393F8B5
:100F880050303BB901EB810300EBC303002283F827
:100F980042203CE001EB810300EBC303022283F80B
:100FA800422034E0AAB901EB810300EBC30393F8B4
:100FB800513033B901EB810300EBC30383F84220BE
:100FC80025E001EB810300EBC303022283F84220F2
:100FD8001DE001EB810300EBC30393F850303BB9EC
:100FE80001EB810300EBC303002283F842200EE0EB
:100FF80001EB810300EBC303022283F8422006E0E1
:1010080001EB810300EBC303002283F8422001EBCC
:10101800810300EBC303079A5A649E64002283F895
:101028005C20DA6483F8391083F85D2001EB8101D4
:10103800C9003831027C0144006800F0D7FEF8BDD1
:1010480030B583B004460568D5F840340193D5F827
:1010580040340093009B23F02E030093019B13F070
:10106800020F07D0019B13F0010F28D1009B43F01A
:1010780002030093019B13F0080F13D0009B43F069
:1010880008030093019B13F0040F34D0A369022BCB
:101098001CD0E368012B29D02046FFF754FC2046DA
:1010A800FFF744FC019B13F0200F03D0009B43F093
:1010B80020030093009BC5F8403403B030BDAB69F2
:1010C80023F00053AB61FFF731FCCFE7019B03F43A
:1010D800C023B3F5802F04D00121206800F091FCD3
:1010E800DAE70221206800F08CFCD5E74EF6602292
:1010F800C5F80424D0E72046FFF72BFCD5F8403488
:1011080023F02E03C5F840342268936943F0005356
:101118009361C7E7F8B506460C46076807EB411721
:1011280007F5A065AB6813F0040F3ED00423AB604D
:10113800EB6843F00203EB60AB6813F4007F6AD1FD
:10114800AB6813F0010F00F0878033694BB104EBF3
:10115800840306EBC3039A6C2969C1F31201521A7E
:10116800DA6404EB840306EBC303012283F85D20F1
:1011780000219965AA6093F83F30002B57D0022BC5
:1011880055D0032B5DD1D7F8003543F00053C7F88D
:10119800003504EB840306EBC303012283F85C20CB
:1011A80021463046FFF7CEFB4BE0AB6813F0200F2B
:1011B80002D02023AB60BFE7AB6813F0080F17D14C
:1011C800AB6813F4806FB7D0EB6843F00203EB60B1
:1011D800006800F090FD1023AB6004EB840306EB7D
:1011E800C303082283F85D204FF48063AB60A3E754
:1011F800EB6843F00203EB6001EB810300EBC303F0
:10120800052283F85D201023AB600823AB600068DB
:1012180000F071FD90E7EB6843F00203EB602146B4
:10122800306800F068FD4FF40073AB6013E0EB68C2
:1012380043F00203EB602146306800F05CFD1023A8
:10124800AB6004EB840306EBC30393F8502082F0F1
:10125800010283F85020F8BDAB6813F0020F5FD08D
:10126800EB6823F00203EB6004EB840306EBC30393
:1012780093F85D30012B17D0052B29D0062B2FD0E2
:10128800082B2DD0032B16D104EB840306EBC303E4
:10129800022283F85C20D7F8003523F0804343F01E
:1012A8000043C7F8003506E004EB840306EBC303EC
:1012B800012283F85C200223AB6004EB840306EB75
:1012C800C30393F85C2021463046FFF73BFBC2E797
:1012D80004EB840306EBC303052283F85C20EAE7EA
:1012E80004EB840206EBC202936D01339365032B72
:1012F8000ED9134600229A65042283F85C20D7F899
:10130800003523F0804343F00043C7F80035D2E7A7
:1013180004EB840306EBC303022283F85C20EEE7A8
:10132800AB6813F0800F19D1AB6813F0100F92D08F
:1013380004EB840306EBC30393F83F30032B26D05A
:101348000BB1022B07D104EB840306EBC303002285
:101358009A65336953B31023AB607CE7EB6843F0BD
:101368000203EB6004EB840306EBC3039A6D0132BE
:101378009A6504EB840306EBC303062283F85D2019
:101388002146306800F0B7FC8023AB6063E704EBCC
:10139800840306EBC30300229A65EB6843F002035B
:1013A800EB602146306800F0A6FCD4E704EB840328
:1013B80006EBC303032283F85D20EB6843F00203C6
:1013C800EB602146306800F096FCC4E7F8B5036886
:1013D80003EB411303F5A065AA6812F0040F06D0C9
:1013E8000423AB60EB6843F00203EB60F8BD0646EC
:1013F8000C46AA6812F0200F1ED02023AB6001EB28
:10140800810300EBC30393F83D30012BEED101EBD0
:10141800810300EBC303002283F83D2001EB810325
:1014280000EBC303022283F85C20EB681343EB60F4
:10143800006800F060FCD9E7AA6812F0400F34D1C8
:10144800AA6812F4007F4AD1AA6812F0010F51D19C
:10145800AA6812F0080F63D1AA6812F0100F70D0B2
:1014680001EB810300EBC30300229A65032283F892
:101478005D2093F83D306BB901EB810300EBC303AA
:1014880093F83C3033B901EB810300EBC30301222D
:1014980083F83D20EB6843F00203EB602146306897
:1014A80000F029FC1023AB60A0E701EB810300EBFF
:1014B800C303042283F85D20012283F83D2001EB59
:1014C800810300EBC30300229A65EB6843F0020333
:1014D800EB60006800F00FFC4023AB6086E7EB6828
:1014E80043F00203EB60006800F005FC4FF4007362
:1014F800AB607BE78F0001EB810300EBC3030022A5
:101508009A65EB6843F00203EB60006800F0F3FBB8
:101518000123AB603C4406EBC40686F85D3065E702
:101528000823AB60EB6843F00203EB60006800F04F
:10153800E2FB04EB840406EBC406052386F85D3061
:1015480054E7AA6812F0800F35D1AA6812F4806FA8
:1015580042D1AA6812F0020F3FF448AFEA6822F0BD
:101568000202EA6001EB810200EBC20292F85D2000
:10157800012A45D0032A59D0042A6BD0052A70D0F5
:10158800062A01D0082A58D1282101FB04618A6D56
:1015980001328A65032A6AD90A4600219165042125
:1015A80082F85C10D3F8002522F0804242F0004215
:1015B800C3F8002541E0EB6843F00203EB600068E4
:1015C80000F099FB04EB840406EBC406062386F8B6
:1015D8005D308023AB6009E7EB6843F00203EB6002
:1015E800006800F088FB1023AB604FF48063AB60A9
:1015F80004EB840406EBC406082386F85D30F5E6A0
:1016080001EB810300EBC30383F85C2093F83F30C0
:10161800023BDBB2934210D8282303FB010393F863
:10162800512082F0010283F8512006E001EB81038A
:1016380000EBC303022283F85C200223AB6004EBB7
:10164800840306EBC30393F85C2021463046FFF77A
:1016580079F9CBE6282303FB0103022283F85C20F7
:10166800EBE7282303FB010383F85C20E5E7282246
:1016780002FB0462022182F85C1093E7F8B5044685
:101688000568284600F0B9F9012800D0F8BD20689F
:1016980000F0AFF90028F9D0206800F0AAF910F49A
:1016A800001F03D023684FF400125A61206800F02D
:1016B800A0F910F4801F03D023684FF480125A61F8
:1016C800206800F096F910F0806F03D023684FF07F
:1016D80080625A61206800F08CF910F0020F02D085
:1016E800236802225A61206800F083F910F0005F35
:1016F80025D1206800F07DF910F0807F31D1206875
:1017080000F077F910F0080F2FD1206800F071F978
:1017180010F0007F30D1206800F06BF910F0100F46
:10172800B4D02268936923F0100393612046FFF731
:10173800D9FA2268936943F010039361A6E7D5F8B4
:10174800403423F02E03C5F840342046FFF7F4F860
:101758000121206800F055F923684FF000525A61C2
:10176800C7E72046FFF76CFCC9E72046FFF7D8F823
:10177800236808225A61C8E7206800F0B7FA0746CC
:10178800002604E0F1B22046FFF720FE0136A368E8
:10179800B34212D906F00F0327FA03F313F0010F2F
:1017A800F4D005EB4613D3F8003513F4004FE9D015
:1017B800F1B22046FFF7AEFCE8E723684FF000726D
:1017C8005A61A8E738B590F8B832012B0ED0044614
:1017D800012580F8B852006800F09BF82946206877
:1017E80000F04EF9002084F8B80238BD0220FCE76A
:1017F80090F8B832012B0BD010B50446012380F8BD
:10180800B832006800F09EFB002084F8B80210BDD2
:101818000220704708B5006800F013F908BD01EB15
:10182800810100EBC10191F85C00704701EB810177
:1018380000EBC101C86C704708B5006800F0CDF92D
:1018480008BD08B5006800F0BDF908BD00230133E4
:101858000C4A934211D80269002AF8DA036943F066
:101868000103036100230133064A934207D8026942
:1018780012F0010FF7D100207047032070470320B2
:10188800704700BF400D030084B010B5044603A89C
:1018980080E80E00089B012B1FD1A36B23F4803333
:1018A800A363E36823F4840323F04003E360E3685D
:1018B80023F44013E3600F9B012B09D02046FFF768
:1018C800C5FF069B012B1BD0BDE8104004B0704734
:1018D800E36843F48013E360F0E7E36843F0400310
:1018E800E3602046FFF7B2FF0C9B23B9A36B43F4D8
:1018F8008033A363E5E7A36B23F48033A363E0E7B6
:10190800A36843F00603A360A36843F02003A36021
:10191800DAE7836843F00103836000207047836837
:1019280023F0010383600020704708B5C36823F0E3
:10193800C043C360012909D069B9C36843F0804333
:10194800C360322001F0ECF8002008BDC36843F002
:101958000053C360F5E70120F7E70000890141F073
:101968002001016100230133054A934205D8026929
:1019780012F0200FF7D1002070470320704700BFF6
:10198800400D03001023036100230133054A9342ED
:1019980005D8026912F0100FF7D100207047032014
:1019A800704700BF400D030070B49DF80C4064B947
:1019B80003339D08AC4208D200EB023303F5805391
:1019C80051F8046B1E600134F4E7002070BC7047C6
:1019D80010B4033294080023A34206D200F58052C3
:1019E800126841F8042B0133F6E708465DF8044B0A
:1019F80070474269806910407047406900F00100F3
:101A0800704710B400F58064D0F8003423F0030365
:101A1800C0F80034D0F8003401F003021343C0F8D2
:101A28000034012905D0022907D000205DF8044BB5
:101A380070474BF680336360F7E741F27073636079
:101A4800F3E730B583B0044600250195D0F840345B
:101A58000193019B23F02E030193019B43F48073B0
:101A6800C0F84034642001F05BF8019B23F48073D4
:101A7800C4F840340A2001F053F8284603B030BDBA
:101A880082B000230193D0F840340193019B23F0E6
:101A98002E030193019B13F4805F01D101290CD01F
:101AA800019B13F4805F05D021B9019B23F4805377
:101AB800C0F84034002002B07047019B43F48053C3
:101AC800C0F84034ECE7000084B038B5044605A8F7
:101AD80080E80E0025460023C4F8003EA36B43F4BB
:101AE8000013A363A36B23F40023A363A36B23F462
:101AF8008023A363E36B13F4807F10D0079B032B31
:101B080006D0D4F8003423F00403C4F800340CE001
:101B1800D4F8003443F00403C4F8003405E0D4F8E2
:101B2800003423F00403C4F8003410212046FFF7E2
:101B380015FF2046FFF726FF0022069B93420AD98D
:101B480005EB42134FF0FF31C3F808150021C3F825
:101B58000C150132F1E701212046FFF791FFC8205B
:101B680000F0DEFF0023A3614FF0FF336361E36BF6
:101B780013F4807F17D04FF40073636203F180730E
:101B8800A3620D4BC4F80031089B1BB9A36943F04D
:101B98001003A361A269094B1343A3610020BDE8A8
:101BA800384004B070478023636203F5C003A36222
:101BB800034BC4F80031E7E70003E000080020A366
:101BC800E000400082B000230193D0F84034019334
:101BD8000198C0F3414002B0704700F5806080680A
:101BE80080B27047F0B506469DF8184000EB4115E5
:101BF80005F5A0604FF0FF378760032C65D8DFE854
:101C080004F00256021840F29D47C76012F0800F98
:101C180009D1F76B17F4807F59D0C76847F0600780
:101C2800C76000200CE0C76847F48077C7600020D1
:101C380006E040F29D67C76012F0800F31D10020A6
:101C480006F5806ED6F8187401F00F014FF0010CFC
:101C58000CFA01F13943C6F81814B16941F0007162
:101C6800B16112F0800F34D100269DF814100229BA
:101C780032D000219B0503F0FE53D20202F4F04259
:101C88001343A20402F440221343BDF81C20C2F3FC
:101C98000A02134333430B43C5F80035032C1ED007
:101CA800F0BDC76847F48077C7600020C8E740F2F6
:101CB8002527C76012F0800F01D10020C0E7C76850
:101CC80047F4C077C7600020BAE70120B8E70020D2
:101CD800B6E74FF40046C8E74FF40031CAE7D5F835
:101CE800003543F00053C5F80035D9E700F58060AA
:101CF800406980B2704710B400EB411101F5A0644F
:101D0800D1F80035C3F3814213F4402F26D0022ABC
:101D180024D0D1F8003543F08043C1F80035D0F81D
:101D2800103413F47F0347D1D1F8002522F0004284
:101D3800C1F80025D1F8002542F00042C1F800257D
:101D4800D1F8002522F40042C1F800250133B3F58B
:101D58007A7F2DD82268002AF8DB29E0D1F80035EF
:101D680043F08043C1F80035C36A13F47F0319D1E7
:101D7800D1F8002522F00042C1F80025D1F800254D
:101D880042F00042C1F80025D1F8002522F40042B3
:101D9800C1F800250133B3F57A7F09D82268002AF3
:101DA800F8DB05E0D1F8003543F00043C1F8003511
:101DB80000205DF8044B7047D1F8003543F000432C
:101DC800C1F80035F4E7000000EB4111064AC1F8FC
:101DD8001025D1F8003523F0804343F00043C1F8C3
:101DE80000350020704700BF0000088070B582B041
:101DF8004C78C36B13F4807F07D00B792BB912B9D9
:101E08004B79012B11D0012A13D00B69E3B10D894D
:101E18002B44013BB3FBF5F39BB2B3F5807F14D998
:101E28002D020D614FF480730FE02146FFF7CCFFC0
:101E380074E000EB4413D3F80C5525F06005C3F8A3
:101E48000C5500234B71E0E70123CD781DB10D89B6
:101E580005FB03F50D610D69C5F31205374E06EA5A
:101E6800C3431D438B7A5B0703F0C04300EB441464
:101E78001D43C4F8105512B1CB68C4F8143500F5E9
:101E88008066B36813F0010FD4F8003523F00053CF
:101E9800C4F80035D4F800350CBF4FF000550025C4
:101EA8002B43C4F80035D4F80055254B1D601D6838
:101EB80025F080451D60CB78C3B1214D2B6843F4D4
:101EC80000432B601E4B1D6845F000451D601B68D4
:101ED800C4F8003512BBCB7803BB0B69F3B1CA79E0
:101EE800032A14D8DFE802F0081D081D144D2B68DA
:101EF80023F400432B60E5E70333C26A92B2C3F3CD
:101F08008F039A4203D2836943F02003836100233D
:101F180000930B8A4A78C968FFF746FD002002B093
:101F280070BD0333326992B2C3F38F039A42EED283
:101F3800836943F080638361E9E700BF0000F81F0D
:101F4800B000002070B505460446FFF7E8FC1021F4
:101F58002846FFF703FD2846FFF714FD00220AE094
:101F680004EB4211D1F8003523F0802343F080437D
:101F7800C1F8003501320F2AF2D90020034600E0EB
:101F880001300F2813D804EB401606F5A061D6F8E7
:101F9800002522F4004242F04042C6F800250133F1
:101FA800B3F57A7FECD80A68002AF8DBE8E74FF047
:101FB800FF33C5F814346B612846FFF7AAFC0020EC
:101FC80070BD0000002800F0D98170B582B00446C9
:101FD800036813F0010F3BD0A64B9B6803F00C037A
:101FE800042B2CD0A34B9B6803F00C03082B21D0A7
:101FF8006368B3F5803F4FD0B3F5A02F52D09D4B07
:102008001A6822F480321A601A6822F480221A6050
:102018006368002B50D000F07DFD0546954B1B688A
:1020280013F4003F14D100F075FD401B6428F5D966
:102038000320AAE18F4B5B6813F4800FD8D08D4B37
:102048001B6813F4003F03D06368002B00F09881ED
:10205800236813F0020F54D0864B9B6813F00C0FC3
:102068003ED0844B9B6803F00C03082B33D0E36805
:10207800002B67D0804B01221A6000F04BFD05460B
:102088007C4B1B6813F0020F53D100F043FD401B3B
:102098000228F5D9032078E1764A136843F480339F
:1020A8001360B5E7734B1A6842F480221A601A6805
:1020B80042F480321A60ABE700F02CFD05466D4B08
:1020C8001B6813F4003FC3D000F024FD401B6428B4
:1020D800F5D9032059E1674B5B6813F4800FC6D12B
:1020E800644B1B6813F0020F03D0E368012B40F028
:1020F8004981604A136823F0F803216943EAC10360
:102108001360236813F0080F40D0636963B35B4B17
:1021180001221A6000F0FEFC0546564B5B6F13F077
:10212800020F33D100F0F6FC401B0228F5D903203A
:102138002BE1504A136823F0F803216943EAC103ED
:102148001360DEE74C4B00221A6000F0E3FC054602
:10215800484B1B6813F0020FD3D000F0DBFC401B88
:102168000228F5D9032010E1444B00221A6000F040
:10217800D1FC05463F4B5B6F13F0020F06D000F011
:10218800C9FC401B0228F5D90320FEE0236813F0A0
:10219800040F78D0374B1B6C13F0805F0DD10023F0
:1021A8000193344B1A6C42F080521A641B6C03F092
:1021B80080530193019B012500E00025304B1B68EB
:1021C80013F4807F21D0A368012B32D0052B36D0A1
:1021D800284B1A6F22F001021A671A6F22F00402C4
:1021E8001A67A368002B34D000F094FC0646214BF4
:1021F8001B6F13F0020F45D100F08CFC801B41F2DD
:1022080088339842F3D90320BFE01D4A136843F48A
:102218008073136000F07EFC0646194B1B6813F4AC
:10222800807FD0D100F076FC801B0228F5D90320EE
:10223800ABE0104A136F43F001031367D1E70D4B6E
:102248001A6F42F004021A671A6F42F001021A6705
:10225800C7E700F05FFC0646064B1B6F13F0020F42
:1022680010D000F057FC801B41F288339842F3D914
:1022780003208AE00038024000004742800E4742AF
:1022880000700040E5B9A369002B7DD0464A9268EA
:1022980002F00C02082A51D0022B17D0434B00221F
:1022A8001A6000F037FC04463F4B1B6813F0007FB0
:1022B80042D000F02FFC001B0228F5D9032064E06F
:1022C800394A136C23F080531364DCE7374B002240
:1022D8001A6000F01FFC0546334B1B6813F0007FA3
:1022E80006D000F017FC401B0228F5D903204CE06B
:1022F800E369226A1343626A43EA8213A26A5208B4
:10230800013A43EA0243E26A43EA0263264A536017
:10231800264B01221A6000F0FDFB0446224B1B6885
:1023280013F0007F06D100F0F5FB001B0228F5D959
:1023380003202AE0002028E0002026E0012B26D0F8
:10234800194B9B6803F48001E269914221D103F0A3
:102358003F02216A8A421ED1616A47F6C0721A405A
:102368008A421AD103F44032A16A8A4217D103F093
:102378007063E26A934214D1002006E0012070479E
:10238800012002E0012000E0002002B070BD012021
:10239800FBE70120F9E70120F7E70120F5E7012035
:1023A800F3E70120F1E700BF003802406000474230
:1023B800F8B52F4B9B6803F00C03042B53D0082B64
:1023C80053D12B4B5A6802F03F025B6813F4800F1D
:1023D80028D0274B5B68C3F3881358010021C01A23
:1023E80061F100018E0146EA906687013C1A66EBAE
:1023F8000105E90041EA5471E000C01841F100010B
:102408004B0243EAD0534402204619460023FDF705
:10241800D7FE174B5B68C3F3014301335B00B0FB86
:10242800F3F023E0124B5B68C3F388135C010025CB
:10243800E41A65F10005AE0146EA9466A701381B67
:1024480066EB0501CC0044EA5074C500E81844F175
:1024580000018B0243EA9053840220461946002368
:10246800FDF7AEFED5E7034800E00348F8BD00BF1E
:102478000038024000127A000024F400002800F01E
:102488009B8070B50D4604464F4B1B6803F00F0345
:102498008B4208D2CBB24C4A1370136803F00F0377
:1024A8008B4240F08B80236813F0020F17D013F093
:1024B800040F04D0454A936843F4E05393602368BB
:1024C80013F0080F04D0414A936843F460439360C3
:1024D8003E4A936823F0F003A1680B439360236896
:1024E80013F0010F32D06368012B21D09A1E012A04
:1024F80025D9364A126812F0020F61D033498A682A
:1025080022F0030213438B6000F004FB06462F4BB6
:102518009B6803F00C036268B3EB820F16D000F0DF
:10252800F9FA801B41F288339842F0D9032042E03F
:10253800264A126812F4003FE0D101203BE0234A0A
:10254800126812F0007FD9D1012034E01E4B1B68BD
:1025580003F00F03AB4207D9EAB21B4B1A701B6892
:1025680003F00F03AB422DD1236813F0040F06D0FC
:10257800164A936823F4E053E1680B439360236899
:1025880013F0080F07D0114A936823F460432169B8
:1025980043EAC1039360FFF70BFF0C4B9B68C3F33F
:1025A80003130B4AD35CD8400A4B18600A4B1868CF
:1025B80000F064FA002070BD012070470120FAE79E
:1025C8000120F8E70120F6E7003C0240003802400D
:1025D800844500080800002004000020014B18680A
:1025E800704700BF0800002008B5FFF7F7FF044B4D
:1025F8009B68C3F38223034AD35CD84008BD00BF5D
:10260800003802409445000830B583B0044603689A
:1026180013F0050F06D1236813F0020F2ED1002006
:1026280003B030BD494B00221A6000F073FA05462A
:10263800474B1B6813F0006F06D000F06BFA431B82
:10264800022BF5D90320EBE76268A3681B0743EA6E
:1026580082133F4AC2F884303C4B01221A6000F0D2
:1026680059FA05463A4B1B6813F0006FD3D100F0B6
:1026780051FA431B022BF5D90320D1E7002301931C
:10268800334B1A6C42F080521A641B6C03F080536F
:102698000193019B2F4A136843F48073136000F081
:1026A80039FA05462B4B1B6813F4807F06D100F0DE
:1026B80031FA431B022BF5D90320B1E7244B1B6FDA
:1026C80013F4407312D0E26802F440729A420DD0BB
:1026D8001F4B1A6F22F440721F4901200860002026
:1026E80008601A671B6F13F0010F13D1E36803F436
:1026F8004072B2F5407F1ED0154A936823F4F81350
:10270800936013490B6FE268C2F30B0213430B6724
:10271800002085E700F0FEF905460D4B1B6F13F00E
:10272800020FE3D100F0F6F9401B41F288339842DA
:10273800F3D9032074E706498A6822F4F81223F0D3
:10274800704323F4407313438B60DAE76800474211
:102758000038024000700040400E4742012801D076
:1027680000207047164B9B6813F4000303D0012B1D
:1027780023D114487047124B5B6813F4800F14D0B0
:102788000F4B5B6803F03F030F48B0FBF3F00C4AB4
:10279800D2F88430C3F3881300FB03F0D2F88430F6
:1027A800C3F30273B0FBF3F07047054B5B6803F0AB
:1027B8003F030648B0FBF3F0E9E70020704700BF8D
:1027C800003802400080BB0000127A000024F400A8
:1027D80000230F2B00F2D980F0B583B039E007222F
:1027E80000E00022B2403A430234684E46F8242002
:1027F800674A1468EA4324EA05064F6817F4803FDD
:1028080001D045EA0406624C2660646802EA0406C0
:102818004F6817F4003F01D045EA04065C4C666037
:10282800A46802EA04064F6817F4801F01D045EA3D
:102838000406574CA660E46822404E6816F4001F50
:1028480001D045EA0402524CE26001330F2B00F23A
:102858009A8001229A400C6804EA020532EA0404CC
:10286800F3D14C68661E012E03D9112C01D0122C0D
:1028780012D186685F000324BC4026EA0406CC68AF
:10288800BC4034438460466826EA02064C68C4F3B8
:1028980000129A4032434260C7685E000324B44085
:1028A800E24327EA04078C68B4403C43C4604C68A0
:1028B800022C01D0122C13D1DF08083750F827E07A
:1028C80003F007044FEA840C0F2404FA0CF42EEAF0
:1028D800040E0C6904FA0CF444EA0E0440F827408C
:1028E800046814404A6802F00302B24022430260BE
:1028F8004A6812F0805FA8D000220192254A546CE1
:1029080044F480445464526C02F480420192019A67
:102918009C08A61C1D4A52F8267003F00302960074
:102928000F22B24027EA02071B4A90423FF459AFF0
:1029380002F5806290421AD002F58062904218D067
:1029480002F58062904216D002F58062904214D05F
:1029580002F58062904212D002F58062904210D057
:1029680002F5806290423FF43AAF08223AE701222A
:1029780038E7022236E7032234E7042232E7052249
:1029880030E706222EE703B0F0BD7047003801405B
:10299800003C014000380240000002400AB1816159
:1029A8007047090481617047074AD36823F4E063DC
:1029B8001B041B0C000200F4E060034343F0BF63F8
:1029C80043F40033D360704700ED00E030B4174B98
:1029D800DB68C3F30223C3F10704042C28BF0424D3
:1029E8001D1D062D18D9033B4FF0FF3505FA04F4D9
:1029F80021EA0401994005FA03F322EA0303194383
:102A080000280BDB0901C9B200F1604000F5614004
:102A180080F8001330BC70470023E5E700F00F0092
:102A28000901C9B2024B1954F4E700BF00ED00E0F8
:102A380014ED00E0002807DB00F01F024009012325
:102A48009340024A42F82030704700BF00E100E09E
:102A58000138B0F1807F0AD2064B5860064AF0214F
:102A680082F823100020986007221A60704701201E
:102A7800704700BF10E000E000ED00E010B504462C
:102A88000E4B18784FF47A73B3FBF0F30C4A1068C6
:102A9800B0FBF3F0FFF7DCFF68B90F2C01D9012078
:102AA8000AE0002221464FF0FF30FFF78FFF054B69
:102AB8001C60002000E0012010BD00BF00000020C5
:102AC800080000200400002008B50B4B1A6842F4E7
:102AD80000721A601A6842F480621A601A6842F436
:102AE80080721A600320FFF75FFF0020FFF7C6FF20
:102AF800FEF718F8002008BD003C0240034A1168A0
:102B0800034B1B780B441360704700BF4408002038
:102B180000000020014B1868704700BF44080020DF
:102B280038B50446FFF7F6FF0546B4F1FF3F02D07B
:102B3800044B1B781C44FFF7EDFF401BA042FAD35F
:102B480038BD00BF00000020002800F0CC80F8B598
:102B5800044690F83D30002B77D0242384F83D308C
:102B68002268136823F0010313602268136843F492
:102B7800004313602268136823F400431360FFF7CF
:102B880033FD62685A4B9A4264D85A4B98428CBFBC
:102B980000230123002B40F0A880574DA5FB0035EA
:102BA800AF0C2668716821F03F0141EA95417160D8
:102BB80021680B6A23F03F0365684D4A95424FD858
:102BC8007A1C13430B622568E96921F44F4121F00F
:102BD800FF016368464A93424CD801385B00B0FB5A
:102BE800F3F0013040F6FC73184278D0C0F30B03C1
:102BF8000B43EB6121680B6823F0C003E269206A8C
:102C0800024313430B6021688B6823F4034323F0CA
:102C1800FF032269E068024313438B602168CB6895
:102C280023F0FF036269A06902431343CB60226863
:102C3800136843F00103136000202064202384F804
:102C48003D30206384F83E00F8BD80F83C30FDF745
:102C580089FF82E7294B98428CBF0023012399E71B
:102C68004FF4967202FB07F2254DA5FB025292091A
:102C78000132A6E7A268BAB9461E03EB4307B6FBC2
:102C8800F7F60136C6F30B06B6FA86F6760946BBA2
:102C9800C2B9421E03EB4303B2FBF3F20132C2F3A3
:102CA8000B0242F40043A3E7461E03EB830707EB3E
:102CB8008707B6FBF7F60136C6F30B06B6FA86F6B3
:102CC8007609E4E7421E03EB830303EB8303B2FBBD
:102CD800F3F20132C2F30B0242F4404388E70423C3
:102CE80086E7012384E7012070470120ACE700BF95
:102CF800A08601007F841E0083DE1B43FF083D0081
:102D0800D34D6210002800F0BF8070B5044690F8DB
:102D18004130002B51D0022284F841202168CB6930
:102D280023F47B6323F00F03CB6123681A62636982
:102D3800934263D0E368002B46D11025A368202B6B
:102D480000D86D000120FFF709FD2369B3F5007F66
:102D58003CD0B0FBF5F000EB800043006069B3FBAA
:102D6800F0F30533494AA2FB0323C3F3C002C2EBC5
:102D7800D3035B0811029A1EFD2A41D822690A432F
:102D8800216813430B622168CB6923F47B6323F02A
:102D98000F036268A0680243E0680243A069024327
:102DA800134343F40063CB61236A012B2ED0002028
:102DB8006064012384F8413070BD80F84030344BA2
:102DC8004363FDF709FFA6E72025B7E7E36853B19A
:102DD800AD00B0FBF5F000EB800043006069B3FB89
:102DE800F0F30533BEE7ED00B0FBF5F000EB800033
:102DF80043006069B3FBF0F30533B3E70021BAE79A
:102E0800636C43F0100363640120D5E7214B6363CF
:102E18002268214B9A421FD04FF04022D36923F4F5
:102E28007B6323F00F03D36122681B4B9A4215D0B2
:102E38004FF0402302221A622268174B9A4210D0A0
:102E48004FF04021CA6992B26368B3F5007F0AD097
:102E5800C3B94FF4807608E0104ADFE7A3F5806332
:102E6800E8E70E49EEE74FF48076A068E568238B23
:102E78002B439BB203439BB23343134343F4006396
:102E8800CB6194E70026F0E701207047CDCCCCCC8D
:102E98001F2F00083131000800380040003400407E
:102EA800704708B5426A03681288DA60436A0233D9
:102EB8004362438D9BB2013B9BB24385438D9BB2DA
:102EC80003B108BD0268536823F0A00353600123CF
:102ED80080F84130FFF7E4FFF3E7704708B503686F
:102EE800DA68C36A1A80C36A0233C362438E9BB22C
:102EF800013B9BB24386438E9BB203B108BD026877
:102F0800536823F060035360012380F84130FFF7D2
:102F1800E4FFF3E7704710B584B00446026893688D
:102F2800039390F84130DBB2042B06D094F841307B
:102F3800DBB2032B2CD004B010BD039B13F0010FA0
:102F480003D0536813F0400F1FD1039B13F0400FB9
:102F5800ECD023685A6812F0200FE7D05A6822F0A4
:102F680060025A60002301932368DA6801929B6823
:102F78000193019B012384F84130636C43F0020301
:102F880063642046FFF7C6FFD0E7FFF7A7FFDCE73B
:102F9800039B13F0020F04D023685B6813F0800FC3
:102FA8001DD1039B13F0080FC5D023685A6812F08F
:102FB800200FC0D05A6822F0A0025A600023029362
:102FC80023689B680293029B012384F84130636C59
:102FD80043F0040363642046FFF79CFFABE72046F9
:102FE800FFF75FFFDDE7704708B5436A9A1C426246
:102FF80002681B88D360438D9BB2013B9BB243851B
:10300800438D9BB23BB90268536823F0A003536019
:10301800438E9BB203B108BD012380F84130FFF70E
:10302800E2FFF8E708B50268154B9A421CD04FF04A
:103038004023DA68C36A991CC1621A80438E9BB226
:10304800013B9BB24386438E9BB263B902680C4B2B
:103058009A420CD04FF04022536823F0600353602B
:10306800438D9BB22BB108BDA3F58063E1E7054A08
:10307800F2E7012380F84130FFF7B5FFF3E700BF1F
:10308800003800400034004008B5436A9A1C426288
:103098001A880168134B994218D04FF04023DA6020
:1030A800438D9BB2013B9BB24385438D9BB263B971
:1030B80002680C4B9A420CD04FF04022536823F020
:1030C800A0035360438E9BB22BB108BDA3F5806368
:1030D800E5E7054AF2E7012380F84130FFF783FF6F
:1030E800F3E700BF003800400034004008B503682B
:1030F800DA68C36A991CC1621A80438E9BB2013B8D
:103108009BB24386438E9BB23BB90268536823F057
:1031180060035360438D9BB203B108BD012380F85F
:103128004130FFF760FFF8E710B586B00446036842
:103138009A680592704A93426FD04FF04022916886
:1031480004915B680393536802936368B3F5007F47
:1031580001D0002B70D1059B13F0020F03D0039B05
:1031680013F0800F5CD1049B13F0010F03D0029B76
:1031780013F0400F58D1049B13F0400F24D0029B4A
:1031880013F0200F20D022685B4B9A4250D04FF0AA
:103198004022536823F0600353602268536823F089
:1031A800A0035360002300932368DA6800929B68A9
:1031B8000093009B012384F84130636C43F00203C1
:1031C80063642046FFF7A6FE059B13F0080F22D084
:1031D800039B13F0200F1ED02268536823F0A0032E
:1031E80053602268444B9A4224D04FF040225368DF
:1031F80023F0600353600023019323689B680193C5
:10320800019B012384F84130636C43F00403636439
:103218002046FFF77FFE06B010BDA2F580628EE75C
:103228002046FFF7E1FE9EE72046FFF7FBFEA2E7F8
:10323800324AAEE7314ADAE7049B13F0020F03D0B3
:10324800029B13F0800F4AD1059B13F0010F03D0A6
:10325800039B13F0400F46D1059B13F0400F1CD081
:10326800039B13F0200F18D02268536823F06003E3
:1032780053602268204B9A4239D04FF0402253685D
:1032880023F0A0035360012384F84130636C43F0BA
:10329800020363642046FFF73DFE049B13F0080F0A
:1032A800B9D0029B13F0200FB5D02268124B9A4276
:1032B8001FD04FF04022536823F0A00353602268C8
:1032C800536823F060035360012384F84130636C32
:1032D80043F0040363642046FFF71CFE9BE7204687
:1032E800FFF7D2FEB0E72046FFF700FFB4E7034A36
:1032F800C5E7024ADFE700BF00380040003400405D
:1033080000283BD010B504460023836290F8513062
:10331800002B2ED0022384F851302268136823F042
:10332800400313606368A2681343E2681343226989
:10333800134362691343A26902F400721343E269FA
:103348001343226A1343A16A22680B431360638BF9
:1033580003F00403616A22680B4353602268D3694F
:1033680023F40063D36100206065012384F85130A1
:1033780010BD80F85030FDF77DFCCBE70120704789
:10338800054BD3F8882042F47002C3F888204FF028
:1033980000629A60704700BF00ED00E010B4044678
:1033A800002305E003F1E002002144F82210013374
:1033B8000E2BF7D90023B3F5007F05D2E2180021C0
:1033C80082F81C110133F6E7002020706070012399
:1033D800A370C4F8BC0323764022A271607684F8F7
:1033E8001C0384F81D335DF8044B704708B5037857
:1033F800DBB20B2B00D008BDD0F87833002BFAD005
:103408009B699847F7E770B584B004464578072D5F
:1034180000F2A280DFE805F0042A325B646D7E8F3B
:10342800082100F045FC08B1012587E094F829330C
:10343800A3710125657002930026019694F81D3347
:10344800009394F81C3380222179204600F02EFD49
:10345800A3790293019694F81D33009394F81C33D2
:1034680032466179204600F021FD67E0122100F024
:103478001FFC002862D1022363705FE0012100F085
:1034880061FC08B1012559E00220FDF7D5FA0125B4
:1034980084F81C5303236370A379029300260196D2
:1034A80094F81D3300932B4680222179204600F0A2
:1034B800FDFCA3790293019694F81D33009394F8C8
:1034C8001C3332466179204600F0F0FC36E00921D1
:1034D80000F007FC002841D10423637001252DE08A
:1034E800B0F8361300F0FDFBD0BB0523637001254F
:1034F80024E090F8301319B90623437001251DE024
:10350800FF2300F58E7200F005FC58BB062363709C
:10351800012513E090F8311319B9072343700125E9
:103528000CE0FF2300F58E7200F0F4FBE0B90723EE
:103538006370012502E090F8325315B9284604B0AB
:1035480070BDFF2300F58E72294600F0E3FB0546A7
:103558000028F3D00125F1E70125EFE70125EDE784
:103568000125EBE70125E9E70125E7E798B138B53B
:103578000D46044680F8C0230023C0F87833C0F80D
:103588007C33FFF70BFF0DB1C4F8C8532046FDF795
:10359800E7F9002038BD022070470A4659B1D0F833
:1035A8007C3353B9591CC0F87C13DC3300EB83001F
:1035B800426000207047022070470220704790F850
:1035C80038338B4203D980F820130020704702203B
:1035D800704770B4064600200AE01A2404FB05650B
:1035E80095F845439C421AD0FF2B18D00130C0B241
:1035F800012813D805461A2404FB006494F84343B1
:103608008C4201D0FF29F1D11A2404FB056494F8F7
:1036180044439442E1D0FF2AE8D1DEE7FF2070BCA2
:10362800704710B50446FDF715FA01212046FDF74D
:10363800DDF9002010BDC0F8BC13704708B5D0F8FC
:10364800BC230132C0F8BC23FFF7D0FE08BD01231C
:1036580080F81F337047002380F81F33704790F8B5
:103668001F03704730B587B0044602238DF8173022
:10367800FFF7F5FF38B923782BB12378DBB2032B9A
:1036880001D0032323702378DBB20B2B4AD8DFE861
:1036980003F006131AD0494CB55E687283C794F8D4
:1036A8001E33002B3ED001232370C820FDF7C4F938
:1036B8002046FDF7DFF935E094F81F33012B31D1AF
:1036C800022323702EE06420FDF7B6F92046FDF7AB
:1036D80071F984F81D03052323700021204600F0AA
:1036E800FAFB60718021204600F0F5FB014620714D
:1036F800A37902930025019594F81D33009394F85B
:103708001C338022204600F0D1FBA3790293019557
:1037180094F81D33009394F81C332A4661792046A7
:1037280000F0C4FB002007B030BD2046FFF76BFE59
:103738000028F7D1002384F8203394F83333012B81
:1037480002D007232370EDE708232370EAE7D4F8B3
:10375800C833002BE6D00121204698470823237060
:10376800E0E794F83913204600F0FDFA0028D9D193
:1037780009232370D6E794F83B3313F0200F02D1C6
:103788000A232370CEE70121204600F0FDFA002825
:10379800C8D10A232370C5E7D4F87C33002BC1D0E5
:1037A8000023C4F8783373B1D4F878331BB39B681B
:1037B80020469847E0B906232370D4F8C83303217C
:1037C80020469847AEE703F1DC0204EB8202526818
:1037D800117994F84323914202D00133DBB2E2E736
:1037E80003F1DC0204EB82025268C4F87823F4E7A0
:1037F8000D23237096E70D23237093E7D4F87833CD
:103808005BB11B69204698478DF817009DF8173063
:10381800002B87D10B23237084E70D23237081E7C6
:10382800D4F87833002B3FF47DAF5B692046984786
:1038380078E72046FFF7B2FDD4F87833002B3FF441
:1038480071AFDB68204698470023C4F8783369E7EE
:1038580008B503784BB9012380F81E33D0F8C83374
:103868000BB104219847002008BD90F81F33012BA5
:10387800F9D102230370F6E710B50446FDF7F2F814
:103888002179204600F038FB6179204600F034FBAE
:10389800002384F81E33D4F8C83313B10521204619
:1038A80098472046FDF7D6F803232370002010BD63
:1038B80010B40B7803704B7843708B78CC7843EA5C
:1038C800042343800B7903714B7943718B7983719E
:1038D800CB79C371082A16D90B7A4A7A43EA0223AC
:1038E80003818B7ACA7A43EA022343810B7B4A7BA2
:1038F80043EA022383818B7B8373CB7BC3730B7C6B
:1039080003744B7C43745DF8044B70470B78037069
:103918004B7843708B788370CB78C3700B790371C5
:103928004B7943718B798371CB79C3710B7A0372AD
:1039380070470B7803704B7843708B788370CB7823
:10394800C3700B794A7943EA022383808B798371A8
:1039580070474378032B00D070470378023B9A42A4
:1039680028BF1A4692B2002393420DD210B4C4184D
:10397800A47801F8014B02339BB29342F7D300239A
:103988000B705DF8044B704700230B70704730B51F
:1039980083B00446057E6B1E0A2B00F2D780DFE851
:1039A80003F00610354154617E8A9DAAC100427910
:1039B80000F1100100F00BFA02232376284603B029
:1039C80030BD4179FDF70CF80546012805D00428DB
:1039D80018D0022816D00125F0E7237CE28A42B1EC
:1039E80013F0800F02D105232376E7E7032323761C
:1039F800E4E713F0800F02D107232376DEE70923DB
:103A08002376DBE70B2323760125D7E7D0F8BC33F1
:103A1800C38103798289816800F000FA0423237640
:103A28000125CBE70179FCF7DBFF012806D0052843
:103A380000F08E80042804D00125BFE709232376EF
:103A4800F5E70B2323760125B8E70125009543798F
:103A58008289816800F0CCF9D4F8BC33E38106236D
:103A68002376ABE74179FCF7BBFF0546012807D071
:103A7800052808D002280AD004280CD001259DE783
:103A8800072323769AE70C232376032596E7052355
:103A98002376012592E70B23237602258EE7037907
:103AA8000022114600F0BAF9D4F8BC33E3810823A8
:103AB8002376012582E70179FCF792FF012805D0DA
:103AC800042807D0052845D0012577E70D2323765C
:103AD800002573E70B23237601256FE70125009561
:103AE80043790022114600F083F9D4F8BC33E3810E
:103AF8000A23237662E74179FCF772FF012805D093
:103B0800022807D0042809D0012557E70D2323767A
:103B1800002553E70923237601254FE70B23237656
:103B280001254BE7437E0133DBB24376022B07D9ED
:103B3800D0F8C833062198470023637602253DE76D
:103B4800FCF790FF01252576A57037E7012535E7B5
:103B5800032533E7032531E703780A8813440B80EC
:103B68000378184470472DE9F04182B00C460B7871
:103B780003704B7843708B78C97843EA01234380FC
:103B88002379037163794371A3798371E379C371ED
:103B9800237A0372092A44D905460923ADF8063069
:103BA8000026012E3DD86A88BDF806309A4238D9D9
:103BB8000DF106012046FFF7CFFF04464378042B9A
:103BC800EFD1B0461A2000FB06F008302844214601
:103BD8000230FFF79BFE00271A2303FB08539B7B49
:103BE800BB421BD96A88BDF806309A4216D90DF136
:103BF80006012046FFF7B0FF04464378052BEBD1BA
:103C080001371A2000FB08F000EBC70008302844F1
:103C180021460430FFF78DFEFFB2DDE70136F6B22C
:103C2800BFE702B0BDE8F08110B5044680780128EE
:103C380003D0022808D0012010BDA160A281012371
:103C480023760223A370F7E72046FFF7A0FE20B9EA
:103C58000123A37000232376EEE7032804D002286B
:103C6800EAD10123A370E7E70123A3700023237699
:103C7800E2E738B50D4614461946BDF8102083789A
:103C8800012B02D0FFF7D0FF38BD65F07F05057422
:103C980006234374448204F47F44B4F5407F03D080
:103CA80000238382C282EDE740F209438382F9E769
:103CB800F0B583B0044600F58E760D460091334684
:103CC8004FF480720021FFF7D4FF074610B1384641
:103CD80003B0F0BD2A46314604F22230FFF7E8FD72
:103CE800F5E7F0B583B004460D4600F11C060091D7
:103CF80033464FF400720021FFF7BBFF074610B1AF
:103D0800384603B0F0BD2A46314604F54D70FFF73A
:103D18002AFFF5E7F0B583B016461D4600F58E7408
:103D28000093234641F440720021FFF7A2FF0746A3
:103D380010B1384603B0F0BD2A4631462046FFF799
:103D480008FEF6E708B58378012B04D00022114657
:103D5800FFF76AFF08BD00230374052242744182FD
:103D68008382C382F2E708B58378012B04D000224E
:103D78001146FFF759FF08BD002303740922427456
:103D880041828382C382F2E708B58378012B04D08D
:103D980000221146FFF748FF08BD002303740322E1
:103DA800427441828382C382F2E708B58378012B8B
:103DB80004D000221146FFF737FF08BD0223037421
:103DC80001234374002343828182C382F1E710B543
:103DD80084B00B46114600240394082202920193F2
:103DE800009423462246FCF768FE204604B010BD26
:103DF80030B585B00C4619469DF8203090F81D5313
:103E080005B1002303930292019401230093002338
:103E18001A46FCF752FE002005B030BD30B585B01B
:103E28000D4619460024039402920195012200923E
:103E38002346FCF742FE204605B030BD30B585B0BC
:103E48000C4619469DF8203090F81D5305B1002303
:103E58000393029201940123009302230022FCF7AA
:103E68002CFE002005B030BD30B585B00D46194692
:103E78000024039402920195012200920223FCF788
:103E88001CFE204605B030BD00230A2B0BD803F1D9
:103E9800E00250F8222012F4004F02D00133DBB2C6
:103EA800F3E798B270474FF6FF70704710B584B0CB
:103EB800BDF8204002949DF81C4001949DF81840DC
:103EC8000094FCF7DFFD002004B010BD08B5FCF736
:103ED800ECFD002008BD38B505460C46FFF7D4FFB9
:103EE8004FF6FF73984205D044F4004400F1E00314
:103EF80045F82340C0B238BD0A2906D8E03150F849
:103F08002130C3F30E0340F8213000207047002011
:103F1800704708B52122027420224274002242828E
:103F280082820722C282FFF77FFE08BD08B5A12260
:103F38000274212242740022428282820722C282B3
:103F4800FFF772FE08BD38B50446D0F87833D96952
:103F58004031FFF7EBFF054620B9D4F8C8330221FA
:103F680020469847284638BD38B50446D0F87833F7
:103F7800DD69297879B9297BB1B9697BF1B9D4F8B8
:103F88007833D86928B100F007FAD4F878330022DA
:103F9800DA61002038BDFFF799FF29782046FFF73E
:103FA800ABFF00232B70E6E72046FFF78FFF297B46
:103FB8002046FFF7A1FF00232B73DEE72046FFF71B
:103FC80085FF697B2046FFF797FF00236B73D6E7D1
:103FD80070B584B00446012302221146FFF7F9FAAE
:103FE800FF2800F0A480064601462046FFF7E7FABE
:103FF800D4F87853502000F0C7F9E861D4F8783342
:10400800DD691A2303FB064393F84A2393F94A33DD
:10401800002B74DB69782046FFF75DFF01462870A6
:104028006A786B8902930323019394F81D330093F4
:1040380094F81C332046FFF739FF002229782046E0
:10404800FCF7E2FC00231A460A212046FFF7C1FAD2
:10405800FF286ED01A2303FB004393F84A2393F9F1
:104068004A33002B53DBAA731A2303FB0043B3F82C
:104078004C332B831A2303FB004393F8522393F901
:104088005233002B4BDBAA731A2303FB0040B0F812
:1040980054332B83A97B2046FFF71DFF6873E97B08
:1040A8002046FFF718FF2873AA7B697B2B8B0293A6
:1040B8000226019694F81D33009394F81C33204689
:1040C800FFF7F4FEEA7B297B6B8B0293019694F849
:1040D8001D33009394F81C332046FFF7E7FE0026B3
:1040E80085F84C603246697B2046FCF78DFC3246E9
:1040F800297B2046FCF788FC304604B070BD6A7006
:104108001A2000FB0646B6F84C336B8182E7EA7347
:104118001A2303FB0043B3F84C336B83AAE7EA7313
:104128001A2303FB0040B0F854336B83B2E7022034
:10413800E3E70220E1E7704730B583B00546D0F8E1
:104148007833DC6994F84D30012B03D0022B19D059
:1041580003B030BD606A228B90420AD9637BE16963
:10416800012000902846FFF769FE022384F84D30AD
:10417800EEE7637BE1690122009282B22846FFF7ED
:104188005DFEF2E7617BFCF72BFC012805D00228D5
:10419800DED1012384F84D30DAE7636A228B93423B
:1041A8000AD99B1A6362E3691A44E261636A33B10C
:1041B800012384F84D30CBE700236362F6E7002340
:1041C80084F84D302846FFF7B6FFC1E7704738B589
:1041D8000446D0F87833DD6995F84E30032B02D0C9
:1041E800042B09D038BD2B7B6A8B296AFFF73CFE6C
:1041F800042385F84E30F5E7297BFCF7F1FB01280D
:10420800F0D1297B2046FCF7E5FBAB6A83420BD053
:104218006A8B824208D21B1AAB622B6A1844286246
:10422800032385F84E30DDE7002385F84E3020461D
:10423800FFF7CCFFD6E7704770B50446D0F878335F
:10424800DE6996F84C50042D04D8DFE805F03F05E8
:1042580013394100012539E0B16CFFF75AFE18B94E
:10426800022386F84C3031E001283AD0042386F83E
:104278004C302BE006F14001FFF758FE0546C0B967
:10428800002386F84C30736C23F07F42B16C4B6886
:1042980023F07F439A4201D0012517E0326C0B6866
:1042A8009A4201D0012511E02046FFF7C4FF0125FD
:1042B8000CE001280AD0042386F84C30012505E0DB
:1042C800FFF73AFF2046FFF782FF0125284670BD19
:1042D8000021FFF76AFD30B9002386F84C3001252C
:1042E800F4E70546F2E70125F0E70000DFF834D0EF
:1042F800002103E00C4B5B58435004310B480C4B36
:1043080042189A42F6D30B4A02E0002342F8043BD3
:10431800094B9A42F9D3FFF733F800F011F8FCF78C
:104328004FFA704700000220B04500080000002046
:10433800900000209000002058080020FEE70000B0
:1043480070B50D4D0D4C641BA4100026A64209D172
:104358000B4D0C4C00F006F9641BA4100026A64275
:1043680005D170BD55F8043B98470136EEE755F87E
:10437800043B98470136F2E7A8450008A84500081D
:10438800A8450008AC450008024B0146186800F033
:1043980063B800BF2C000020024B0146186800F0EB
:1043A8000BB800BF2C00002002440346934200D102
:1043B800704703F8011BF9E737B5002948D051F8D1
:1043C800043C0190002BA1F10404B8BFE41800F0EC
:1043D800ADF8204A01981368154633B96360146034
:1043E80003B0BDE8304000F0A7B8A3420BD921685C
:1043F8006218934204BF1A685B68636004BF52186E
:1044080022602C60ECE71A465B680BB1A342FAD92C
:1044180011685518A5420BD1246821445418A342A9
:104428001160DDD11C685B68536021441160D7E7D7
:1044380002D90C230360D3E7256861198B4204BFB6
:1044480019685B68636004BF491921605460C7E755
:1044580003B030BDB4000020F8B5CD1C25F003052D
:1044680008350C2D38BF0C25002D064601DBA94266
:1044780003D90C2333600020F8BD00F057F8214918
:104488000A6814469CB9204F3B6823B92146304638
:1044980000F03CF838602946304600F037F8431CF5
:1044A80023D10C233360304600F046F8E3E7236855
:1044B8005B1B17D40B2B03D923601C44256004E035
:1044C8006368A2420CBF0B605360304600F034F8BA
:1044D80004F10B00231D20F00700C21ACCD01B1AD0
:1044E800A350C9E722466468CCE7C41C24F003043F
:1044F800A042E3D0211A304600F008F80130DDD19F
:10450800CFE700BFB4000020B800002038B5064D42
:104518000023044608462B6000F016F8431C02D11D
:104528002B6803B1236038BD48080020014800F01B
:1045380009B800BF50080020014800F004B800BFC7
:104548005008002070477047044A05491368002B3B
:1045580008BF0B461844106018467047BC0000207E
:1045680058080020F8B500BFF8BC08BC9E46704744
:0C457800F8B500BFF8BC08BC9E467047B8
:1045840000000000000000000102030406070809FF
:0C45940000000000010203044344430047
:0845A00058BCFF7F0100000080
:0445A800AD01000859
:0445AC008901000879
:1045B00001000000100000000024F4009C450008E9
:1045C00002000000D93F0008713F00084F3F00087B
:1045D00041420008173F00080000000030000020A2
:1045E00000000000000000000000000000000000CB
:1045F00000000000000000000000000000000000BB
:1046000000000000000000000000000000000000AA
:10461000000000000000000000000000000000009A
:10462000000000000000000000000000000000008A
:10463000000000000000000000000000000000007A
:04000005080042F5B8
:00000001FF
